{
  "_format": "hh-sol-artifact-1",
  "contractName": "CustomERC20",
  "sourceName": "contracts/CustomERC20.sol",
  "abi": [
    {
      "inputs": [
        {
          "internalType": "string",
          "name": "name_",
          "type": "string"
        },
        {
          "internalType": "string",
          "name": "symbol_",
          "type": "string"
        },
        {
          "internalType": "uint256",
          "name": "initialSupply_",
          "type": "uint256"
        },
        {
          "internalType": "bool",
          "name": "isMintable_",
          "type": "bool"
        },
        {
          "internalType": "bool",
          "name": "isBurnable_",
          "type": "bool"
        }
      ],
      "stateMutability": "nonpayable",
      "type": "constructor"
    },
    {
      "anonymous": false,
      "inputs": [
        {
          "indexed": true,
          "internalType": "address",
          "name": "owner",
          "type": "address"
        },
        {
          "indexed": true,
          "internalType": "address",
          "name": "spender",
          "type": "address"
        },
        {
          "indexed": false,
          "internalType": "uint256",
          "name": "value",
          "type": "uint256"
        }
      ],
      "name": "Approval",
      "type": "event"
    },
    {
      "anonymous": false,
      "inputs": [
        {
          "indexed": true,
          "internalType": "address",
          "name": "previousOwner",
          "type": "address"
        },
        {
          "indexed": true,
          "internalType": "address",
          "name": "newOwner",
          "type": "address"
        }
      ],
      "name": "OwnershipTransferred",
      "type": "event"
    },
    {
      "anonymous": false,
      "inputs": [
        {
          "indexed": true,
          "internalType": "address",
          "name": "from",
          "type": "address"
        },
        {
          "indexed": true,
          "internalType": "address",
          "name": "to",
          "type": "address"
        },
        {
          "indexed": false,
          "internalType": "uint256",
          "name": "value",
          "type": "uint256"
        }
      ],
      "name": "Transfer",
      "type": "event"
    },
    {
      "inputs": [
        {
          "internalType": "address",
          "name": "owner",
          "type": "address"
        },
        {
          "internalType": "address",
          "name": "spender",
          "type": "address"
        }
      ],
      "name": "allowance",
      "outputs": [
        {
          "internalType": "uint256",
          "name": "",
          "type": "uint256"
        }
      ],
      "stateMutability": "view",
      "type": "function"
    },
    {
      "inputs": [
        {
          "internalType": "address",
          "name": "spender",
          "type": "address"
        },
        {
          "internalType": "uint256",
          "name": "amount",
          "type": "uint256"
        }
      ],
      "name": "approve",
      "outputs": [
        {
          "internalType": "bool",
          "name": "",
          "type": "bool"
        }
      ],
      "stateMutability": "nonpayable",
      "type": "function"
    },
    {
      "inputs": [
        {
          "internalType": "address",
          "name": "account",
          "type": "address"
        }
      ],
      "name": "balanceOf",
      "outputs": [
        {
          "internalType": "uint256",
          "name": "",
          "type": "uint256"
        }
      ],
      "stateMutability": "view",
      "type": "function"
    },
    {
      "inputs": [
        {
          "internalType": "uint256",
          "name": "amount",
          "type": "uint256"
        }
      ],
      "name": "burn",
      "outputs": [],
      "stateMutability": "nonpayable",
      "type": "function"
    },
    {
      "inputs": [
        {
          "internalType": "address",
          "name": "account",
          "type": "address"
        },
        {
          "internalType": "uint256",
          "name": "amount",
          "type": "uint256"
        }
      ],
      "name": "burnFrom",
      "outputs": [],
      "stateMutability": "nonpayable",
      "type": "function"
    },
    {
      "inputs": [],
      "name": "decimals",
      "outputs": [
        {
          "internalType": "uint8",
          "name": "",
          "type": "uint8"
        }
      ],
      "stateMutability": "view",
      "type": "function"
    },
    {
      "inputs": [
        {
          "internalType": "address",
          "name": "spender",
          "type": "address"
        },
        {
          "internalType": "uint256",
          "name": "subtractedValue",
          "type": "uint256"
        }
      ],
      "name": "decreaseAllowance",
      "outputs": [
        {
          "internalType": "bool",
          "name": "",
          "type": "bool"
        }
      ],
      "stateMutability": "nonpayable",
      "type": "function"
    },
    {
      "inputs": [
        {
          "internalType": "address",
          "name": "spender",
          "type": "address"
        },
        {
          "internalType": "uint256",
          "name": "addedValue",
          "type": "uint256"
        }
      ],
      "name": "increaseAllowance",
      "outputs": [
        {
          "internalType": "bool",
          "name": "",
          "type": "bool"
        }
      ],
      "stateMutability": "nonpayable",
      "type": "function"
    },
    {
      "inputs": [],
      "name": "isBurnable",
      "outputs": [
        {
          "internalType": "bool",
          "name": "",
          "type": "bool"
        }
      ],
      "stateMutability": "view",
      "type": "function"
    },
    {
      "inputs": [],
      "name": "isMintable",
      "outputs": [
        {
          "internalType": "bool",
          "name": "",
          "type": "bool"
        }
      ],
      "stateMutability": "view",
      "type": "function"
    },
    {
      "inputs": [
        {
          "internalType": "address",
          "name": "account",
          "type": "address"
        },
        {
          "internalType": "uint256",
          "name": "amount",
          "type": "uint256"
        }
      ],
      "name": "mint",
      "outputs": [],
      "stateMutability": "nonpayable",
      "type": "function"
    },
    {
      "inputs": [],
      "name": "name",
      "outputs": [
        {
          "internalType": "string",
          "name": "",
          "type": "string"
        }
      ],
      "stateMutability": "view",
      "type": "function"
    },
    {
      "inputs": [],
      "name": "owner",
      "outputs": [
        {
          "internalType": "address",
          "name": "",
          "type": "address"
        }
      ],
      "stateMutability": "view",
      "type": "function"
    },
    {
      "inputs": [],
      "name": "renounceOwnership",
      "outputs": [],
      "stateMutability": "nonpayable",
      "type": "function"
    },
    {
      "inputs": [],
      "name": "symbol",
      "outputs": [
        {
          "internalType": "string",
          "name": "",
          "type": "string"
        }
      ],
      "stateMutability": "view",
      "type": "function"
    },
    {
      "inputs": [],
      "name": "totalSupply",
      "outputs": [
        {
          "internalType": "uint256",
          "name": "",
          "type": "uint256"
        }
      ],
      "stateMutability": "view",
      "type": "function"
    },
    {
      "inputs": [
        {
          "internalType": "address",
          "name": "to",
          "type": "address"
        },
        {
          "internalType": "uint256",
          "name": "amount",
          "type": "uint256"
        }
      ],
      "name": "transfer",
      "outputs": [
        {
          "internalType": "bool",
          "name": "",
          "type": "bool"
        }
      ],
      "stateMutability": "nonpayable",
      "type": "function"
    },
    {
      "inputs": [
        {
          "internalType": "address",
          "name": "from",
          "type": "address"
        },
        {
          "internalType": "address",
          "name": "to",
          "type": "address"
        },
        {
          "internalType": "uint256",
          "name": "amount",
          "type": "uint256"
        }
      ],
      "name": "transferFrom",
      "outputs": [
        {
          "internalType": "bool",
          "name": "",
          "type": "bool"
        }
      ],
      "stateMutability": "nonpayable",
      "type": "function"
    },
    {
      "inputs": [
        {
          "internalType": "address",
          "name": "newOwner",
          "type": "address"
        }
      ],
      "name": "transferOwnership",
      "outputs": [],
      "stateMutability": "nonpayable",
      "type": "function"
    }
  ],
  "bytecode": "0x60806040523480156200001157600080fd5b50604051620016703803806200167083398101604081905262000034916200049c565b8451859085906200004d90600390602085019062000313565b5080516200006390600490602084019062000313565b505050620000806200007a620000f760201b60201c565b620000fb565b6005805461ffff60a01b1916600160a01b8415150260ff60a81b191617600160a81b83151502179055620000e132620000b7601290565b620000c490600a6200064a565b620000d0908662000662565b6200014d60201b620006671760201c565b620000ec3262000236565b5050505050620006dc565b3390565b600580546001600160a01b038381166001600160a01b0319831681179093556040519116919082907f8be0079c531659141344cd1fd0a4f28419497f9722a3daafe3b4186f6b6457e090600090a35050565b6001600160a01b038216620001a95760405162461bcd60e51b815260206004820152601f60248201527f45524332303a206d696e7420746f20746865207a65726f20616464726573730060448201526064015b60405180910390fd5b8060026000828254620001bd919062000684565b90915550506001600160a01b03821660009081526020819052604081208054839290620001ec90849062000684565b90915550506040518181526001600160a01b038316906000907fddf252ad1be2c89b69c2b068fc378daa952ba7f163c4a11628f55a4df523b3ef9060200160405180910390a35050565b62000240620002b5565b6001600160a01b038116620002a75760405162461bcd60e51b815260206004820152602660248201527f4f776e61626c653a206e6577206f776e657220697320746865207a65726f206160448201526564647265737360d01b6064820152608401620001a0565b620002b281620000fb565b50565b6005546001600160a01b03163314620003115760405162461bcd60e51b815260206004820181905260248201527f4f776e61626c653a2063616c6c6572206973206e6f7420746865206f776e65726044820152606401620001a0565b565b82805462000321906200069f565b90600052602060002090601f01602090048101928262000345576000855562000390565b82601f106200036057805160ff191683800117855562000390565b8280016001018555821562000390579182015b828111156200039057825182559160200191906001019062000373565b506200039e929150620003a2565b5090565b5b808211156200039e5760008155600101620003a3565b634e487b7160e01b600052604160045260246000fd5b600082601f830112620003e157600080fd5b81516001600160401b0380821115620003fe57620003fe620003b9565b604051601f8301601f19908116603f01168101908282118183101715620004295762000429620003b9565b816040528381526020925086838588010111156200044657600080fd5b600091505b838210156200046a57858201830151818301840152908201906200044b565b838211156200047c5760008385830101525b9695505050505050565b805180151581146200049757600080fd5b919050565b600080600080600060a08688031215620004b557600080fd5b85516001600160401b0380821115620004cd57600080fd5b620004db89838a01620003cf565b96506020880151915080821115620004f257600080fd5b506200050188828901620003cf565b94505060408601519250620005196060870162000486565b9150620005296080870162000486565b90509295509295909350565b634e487b7160e01b600052601160045260246000fd5b600181815b808511156200058c57816000190482111562000570576200057062000535565b808516156200057e57918102915b93841c939080029062000550565b509250929050565b600082620005a55750600162000644565b81620005b45750600062000644565b8160018114620005cd5760028114620005d857620005f8565b600191505062000644565b60ff841115620005ec57620005ec62000535565b50506001821b62000644565b5060208310610133831016604e8410600b84101617156200061d575081810a62000644565b6200062983836200054b565b806000190482111562000640576200064062000535565b0290505b92915050565b60006200065b60ff84168362000594565b9392505050565b60008160001904831182151516156200067f576200067f62000535565b500290565b600082198211156200069a576200069a62000535565b500190565b600181811c90821680620006b457607f821691505b60208210811415620006d657634e487b7160e01b600052602260045260246000fd5b50919050565b610f8480620006ec6000396000f3fe608060405234801561001057600080fd5b50600436106101515760003560e01c806370a08231116100cd57806395d89b4111610081578063a9059cbb11610066578063a9059cbb146102a4578063dd62ed3e146102b7578063f2fde38b146102f057600080fd5b806395d89b4114610289578063a457c2d71461029157600080fd5b806379cc6790116100b257806379cc679014610249578063883356d91461025c5780638da5cb5b1461026e57600080fd5b806370a0823114610218578063715018a61461024157600080fd5b8063313ce5671161012457806340c10f191161010957806340c10f19146101de57806342966c68146101f357806346b45af71461020657600080fd5b8063313ce567146101bc57806339509351146101cb57600080fd5b806306fdde0314610156578063095ea7b31461017457806318160ddd1461019757806323b872dd146101a9575b600080fd5b61015e610303565b60405161016b9190610d89565b60405180910390f35b610187610182366004610dfa565b610395565b604051901515815260200161016b565b6002545b60405190815260200161016b565b6101876101b7366004610e24565b6103ad565b6040516012815260200161016b565b6101876101d9366004610dfa565b6103d1565b6101f16101ec366004610dfa565b610410565b005b6101f1610201366004610e60565b610484565b600554600160a01b900460ff16610187565b61019b610226366004610e79565b6001600160a01b031660009081526020819052604090205490565b6101f16104ea565b6101f1610257366004610dfa565b6104fe565b600554600160a81b900460ff16610187565b6005546040516001600160a01b03909116815260200161016b565b61015e610513565b61018761029f366004610dfa565b610522565b6101876102b2366004610dfa565b6105cc565b61019b6102c5366004610e9b565b6001600160a01b03918216600090815260016020908152604080832093909416825291909152205490565b6101f16102fe366004610e79565b6105da565b60606003805461031290610ece565b80601f016020809104026020016040519081016040528092919081815260200182805461033e90610ece565b801561038b5780601f106103605761010080835404028352916020019161038b565b820191906000526020600020905b81548152906001019060200180831161036e57829003601f168201915b5050505050905090565b6000336103a3818585610746565b5060019392505050565b6000336103bb85828561089f565b6103c6858585610931565b506001949350505050565b3360008181526001602090815260408083206001600160a01b03871684529091528120549091906103a3908290869061040b908790610f1f565b610746565b610418610b48565b600554600160a01b900460ff166104765760405162461bcd60e51b815260206004820152601560248201527f546f6b656e206973206e6f74206d696e7461626c65000000000000000000000060448201526064015b60405180910390fd5b6104808282610667565b5050565b600554600160a81b900460ff166104dd5760405162461bcd60e51b815260206004820152601660248201527f546f6b656e2063616e6e6f74206265206275726e656400000000000000000000604482015260640161046d565b6104e73382610ba2565b50565b6104f2610b48565b6104fc6000610d1f565b565b61050982338361089f565b6104808282610ba2565b60606004805461031290610ece565b3360008181526001602090815260408083206001600160a01b0387168452909152812054909190838110156105bf5760405162461bcd60e51b815260206004820152602560248201527f45524332303a2064656372656173656420616c6c6f77616e63652062656c6f7760448201527f207a65726f000000000000000000000000000000000000000000000000000000606482015260840161046d565b6103c68286868403610746565b6000336103a3818585610931565b6105e2610b48565b6001600160a01b03811661065e5760405162461bcd60e51b815260206004820152602660248201527f4f776e61626c653a206e6577206f776e657220697320746865207a65726f206160448201527f6464726573730000000000000000000000000000000000000000000000000000606482015260840161046d565b6104e781610d1f565b6001600160a01b0382166106bd5760405162461bcd60e51b815260206004820152601f60248201527f45524332303a206d696e7420746f20746865207a65726f206164647265737300604482015260640161046d565b80600260008282546106cf9190610f1f565b90915550506001600160a01b038216600090815260208190526040812080548392906106fc908490610f1f565b90915550506040518181526001600160a01b038316906000907fddf252ad1be2c89b69c2b068fc378daa952ba7f163c4a11628f55a4df523b3ef9060200160405180910390a35050565b6001600160a01b0383166107c15760405162461bcd60e51b8152602060048201526024808201527f45524332303a20617070726f76652066726f6d20746865207a65726f2061646460448201527f7265737300000000000000000000000000000000000000000000000000000000606482015260840161046d565b6001600160a01b03821661083d5760405162461bcd60e51b815260206004820152602260248201527f45524332303a20617070726f766520746f20746865207a65726f20616464726560448201527f7373000000000000000000000000000000000000000000000000000000000000606482015260840161046d565b6001600160a01b0383811660008181526001602090815260408083209487168084529482529182902085905590518481527f8c5be1e5ebec7d5bd14f71427d1e84f3dd0314c0f7b2291e5b200ac8c7c3b92591015b60405180910390a3505050565b6001600160a01b03838116600090815260016020908152604080832093861683529290522054600019811461092b578181101561091e5760405162461bcd60e51b815260206004820152601d60248201527f45524332303a20696e73756666696369656e7420616c6c6f77616e6365000000604482015260640161046d565b61092b8484848403610746565b50505050565b6001600160a01b0383166109ad5760405162461bcd60e51b815260206004820152602560248201527f45524332303a207472616e736665722066726f6d20746865207a65726f20616460448201527f6472657373000000000000000000000000000000000000000000000000000000606482015260840161046d565b6001600160a01b038216610a295760405162461bcd60e51b815260206004820152602360248201527f45524332303a207472616e7366657220746f20746865207a65726f206164647260448201527f6573730000000000000000000000000000000000000000000000000000000000606482015260840161046d565b6001600160a01b03831660009081526020819052604090205481811015610ab85760405162461bcd60e51b815260206004820152602660248201527f45524332303a207472616e7366657220616d6f756e742065786365656473206260448201527f616c616e63650000000000000000000000000000000000000000000000000000606482015260840161046d565b6001600160a01b03808516600090815260208190526040808220858503905591851681529081208054849290610aef908490610f1f565b92505081905550826001600160a01b0316846001600160a01b03167fddf252ad1be2c89b69c2b068fc378daa952ba7f163c4a11628f55a4df523b3ef84604051610b3b91815260200190565b60405180910390a361092b565b6005546001600160a01b031633146104fc5760405162461bcd60e51b815260206004820181905260248201527f4f776e61626c653a2063616c6c6572206973206e6f7420746865206f776e6572604482015260640161046d565b6001600160a01b038216610c1e5760405162461bcd60e51b815260206004820152602160248201527f45524332303a206275726e2066726f6d20746865207a65726f2061646472657360448201527f7300000000000000000000000000000000000000000000000000000000000000606482015260840161046d565b6001600160a01b03821660009081526020819052604090205481811015610cad5760405162461bcd60e51b815260206004820152602260248201527f45524332303a206275726e20616d6f756e7420657863656564732062616c616e60448201527f6365000000000000000000000000000000000000000000000000000000000000606482015260840161046d565b6001600160a01b0383166000908152602081905260408120838303905560028054849290610cdc908490610f37565b90915550506040518281526000906001600160a01b038516907fddf252ad1be2c89b69c2b068fc378daa952ba7f163c4a11628f55a4df523b3ef90602001610892565b600580546001600160a01b038381167fffffffffffffffffffffffff0000000000000000000000000000000000000000831681179093556040519116919082907f8be0079c531659141344cd1fd0a4f28419497f9722a3daafe3b4186f6b6457e090600090a35050565b600060208083528351808285015260005b81811015610db657858101830151858201604001528201610d9a565b81811115610dc8576000604083870101525b50601f01601f1916929092016040019392505050565b80356001600160a01b0381168114610df557600080fd5b919050565b60008060408385031215610e0d57600080fd5b610e1683610dde565b946020939093013593505050565b600080600060608486031215610e3957600080fd5b610e4284610dde565b9250610e5060208501610dde565b9150604084013590509250925092565b600060208284031215610e7257600080fd5b5035919050565b600060208284031215610e8b57600080fd5b610e9482610dde565b9392505050565b60008060408385031215610eae57600080fd5b610eb783610dde565b9150610ec560208401610dde565b90509250929050565b600181811c90821680610ee257607f821691505b60208210811415610f0357634e487b7160e01b600052602260045260246000fd5b50919050565b634e487b7160e01b600052601160045260246000fd5b60008219821115610f3257610f32610f09565b500190565b600082821015610f4957610f49610f09565b50039056fea264697066735822122099e8892094b8ef68fa32e75208cd35b994785bdaa633efb1704fee7c98e0bfc964736f6c63430008090033",
  "linkReferences": {},
  "deployedLinkReferences": {}
}