{
  "_format": "hh-sol-artifact-1",
  "contractName": "ERC20Factory",
  "sourceName": "contracts/ERC20Factory.sol",
  "abi": [
    {
      "inputs": [
        {
          "internalType": "string",
          "name": "name_",
          "type": "string"
        },
        {
          "internalType": "string",
          "name": "symbol_",
          "type": "string"
        },
        {
          "internalType": "uint256",
          "name": "initialSupply_",
          "type": "uint256"
        },
        {
          "internalType": "bool",
          "name": "isMintable_",
          "type": "bool"
        },
        {
          "internalType": "bool",
          "name": "isBurnable_",
          "type": "bool"
        }
      ],
      "name": "createToken",
      "outputs": [
        {
          "internalType": "string",
          "name": "",
          "type": "string"
        },
        {
          "internalType": "string",
          "name": "",
          "type": "string"
        },
        {
          "internalType": "uint256",
          "name": "",
          "type": "uint256"
        },
        {
          "internalType": "bool",
          "name": "",
          "type": "bool"
        },
        {
          "internalType": "bool",
          "name": "",
          "type": "bool"
        }
      ],
      "stateMutability": "nonpayable",
      "type": "function"
    },
    {
      "inputs": [
        {
          "internalType": "string",
          "name": "name_",
          "type": "string"
        },
        {
          "internalType": "string",
          "name": "symbol_",
          "type": "string"
        },
        {
          "internalType": "uint256",
          "name": "initialSupply_",
          "type": "uint256"
        },
        {
          "internalType": "bool",
          "name": "isMintable_",
          "type": "bool"
        },
        {
          "internalType": "bool",
          "name": "isBurnable_",
          "type": "bool"
        },
        {
          "internalType": "uint8",
          "name": "decimals_",
          "type": "uint8"
        }
      ],
      "name": "createTokenDecimals",
      "outputs": [
        {
          "internalType": "string",
          "name": "",
          "type": "string"
        },
        {
          "internalType": "string",
          "name": "",
          "type": "string"
        },
        {
          "internalType": "uint256",
          "name": "",
          "type": "uint256"
        },
        {
          "internalType": "bool",
          "name": "",
          "type": "bool"
        },
        {
          "internalType": "bool",
          "name": "",
          "type": "bool"
        },
        {
          "internalType": "uint8",
          "name": "",
          "type": "uint8"
        }
      ],
      "stateMutability": "nonpayable",
      "type": "function"
    }
  ],
  "bytecode": "0x608060405234801561001057600080fd5b50615e42806100206000396000f3fe60806040523480156200001157600080fd5b50600436106200003a5760003560e01c8063c6fc2aaf146200003f578063c8f0a4251462000079575b600080fd5b6200005d600480360381019062000057919062000392565b620000b4565b604051620000709594939291906200050d565b60405180910390f35b620000976004803603810190620000919190620005b6565b6200011a565b604051620000ab96959493929190620006a1565b60405180910390f35b60608060008060008989898989604051620000cf9062000188565b620000df9594939291906200050d565b604051809103906000f080158015620000fc573d6000803e3d6000fd5b50508989898989945094509450945094509550955095509550959050565b6060806000806000808b8b8b8b8b8b604051620001379062000196565b6200014896959493929190620006a1565b604051809103906000f08015801562000165573d6000803e3d6000fd5b50508b8b8b8b8b8b95509550955095509550955096509650965096509650969050565b612b0c806200071d83390190565b612be4806200322983390190565b6000604051905090565b600080fd5b600080fd5b600080fd5b600080fd5b6000601f19601f8301169050919050565b7f4e487b7100000000000000000000000000000000000000000000000000000000600052604160045260246000fd5b6200020d82620001c2565b810181811067ffffffffffffffff821117156200022f576200022e620001d3565b5b80604052505050565b600062000244620001a4565b905062000252828262000202565b919050565b600067ffffffffffffffff821115620002755762000274620001d3565b5b6200028082620001c2565b9050602081019050919050565b82818337600083830152505050565b6000620002b3620002ad8462000257565b62000238565b905082815260208101848484011115620002d257620002d1620001bd565b5b620002df8482856200028d565b509392505050565b600082601f830112620002ff57620002fe620001b8565b5b8135620003118482602086016200029c565b91505092915050565b6000819050919050565b6200032f816200031a565b81146200033b57600080fd5b50565b6000813590506200034f8162000324565b92915050565b60008115159050919050565b6200036c8162000355565b81146200037857600080fd5b50565b6000813590506200038c8162000361565b92915050565b600080600080600060a08688031215620003b157620003b0620001ae565b5b600086013567ffffffffffffffff811115620003d257620003d1620001b3565b5b620003e088828901620002e7565b955050602086013567ffffffffffffffff811115620004045762000403620001b3565b5b6200041288828901620002e7565b945050604062000425888289016200033e565b935050606062000438888289016200037b565b92505060806200044b888289016200037b565b9150509295509295909350565b600081519050919050565b600082825260208201905092915050565b60005b838110156200049457808201518184015260208101905062000477565b83811115620004a4576000848401525b50505050565b6000620004b78262000458565b620004c3818562000463565b9350620004d581856020860162000474565b620004e081620001c2565b840191505092915050565b620004f6816200031a565b82525050565b620005078162000355565b82525050565b600060a0820190508181036000830152620005298188620004aa565b905081810360208301526200053f8187620004aa565b9050620005506040830186620004eb565b6200055f6060830185620004fc565b6200056e6080830184620004fc565b9695505050505050565b600060ff82169050919050565b620005908162000578565b81146200059c57600080fd5b50565b600081359050620005b08162000585565b92915050565b60008060008060008060c08789031215620005d657620005d5620001ae565b5b600087013567ffffffffffffffff811115620005f757620005f6620001b3565b5b6200060589828a01620002e7565b965050602087013567ffffffffffffffff811115620006295762000628620001b3565b5b6200063789828a01620002e7565b95505060406200064a89828a016200033e565b94505060606200065d89828a016200037b565b93505060806200067089828a016200037b565b92505060a06200068389828a016200059f565b9150509295509295509295565b6200069b8162000578565b82525050565b600060c0820190508181036000830152620006bd8189620004aa565b90508181036020830152620006d38188620004aa565b9050620006e46040830187620004eb565b620006f36060830186620004fc565b620007026080830185620004fc565b6200071160a083018462000690565b97965050505050505056fe60806040523480156200001157600080fd5b5060405162002b0c38038062002b0c83398181016040528101906200003791906200078f565b8484816003908051906020019062000051929190620004ca565b5080600490805190602001906200006a929190620004ca565b5050506200008d620000816200011e60201b60201c565b6200012660201b60201c565b81600560146101000a81548160ff02191690831515021790555080600560156101000a81548160ff0219169083151502179055506200010232620000d6620001ec60201b60201c565b600a620000e49190620009e5565b85620000f1919062000a36565b620001f560201b620008b31760201c565b62000113326200036e60201b60201c565b505050505062000d14565b600033905090565b6000600560009054906101000a900473ffffffffffffffffffffffffffffffffffffffff16905081600560006101000a81548173ffffffffffffffffffffffffffffffffffffffff021916908373ffffffffffffffffffffffffffffffffffffffff1602179055508173ffffffffffffffffffffffffffffffffffffffff168173ffffffffffffffffffffffffffffffffffffffff167f8be0079c531659141344cd1fd0a4f28419497f9722a3daafe3b4186f6b6457e060405160405180910390a35050565b60006012905090565b600073ffffffffffffffffffffffffffffffffffffffff168273ffffffffffffffffffffffffffffffffffffffff16141562000268576040517f08c379a00000000000000000000000000000000000000000000000000000000081526004016200025f9062000af8565b60405180910390fd5b6200027c600083836200040560201b60201c565b806002600082825462000290919062000b1a565b92505081905550806000808473ffffffffffffffffffffffffffffffffffffffff1673ffffffffffffffffffffffffffffffffffffffff1681526020019081526020016000206000828254620002e7919062000b1a565b925050819055508173ffffffffffffffffffffffffffffffffffffffff16600073ffffffffffffffffffffffffffffffffffffffff167fddf252ad1be2c89b69c2b068fc378daa952ba7f163c4a11628f55a4df523b3ef836040516200034e919062000b88565b60405180910390a36200036a600083836200040a60201b60201c565b5050565b6200037e6200040f60201b60201c565b600073ffffffffffffffffffffffffffffffffffffffff168173ffffffffffffffffffffffffffffffffffffffff161415620003f1576040517f08c379a0000000000000000000000000000000000000000000000000000000008152600401620003e89062000c1b565b60405180910390fd5b62000402816200012660201b60201c565b50565b505050565b505050565b6200041f6200011e60201b60201c565b73ffffffffffffffffffffffffffffffffffffffff1662000445620004a060201b60201c565b73ffffffffffffffffffffffffffffffffffffffff16146200049e576040517f08c379a0000000000000000000000000000000000000000000000000000000008152600401620004959062000c8d565b60405180910390fd5b565b6000600560009054906101000a900473ffffffffffffffffffffffffffffffffffffffff16905090565b828054620004d89062000cde565b90600052602060002090601f016020900481019282620004fc576000855562000548565b82601f106200051757805160ff191683800117855562000548565b8280016001018555821562000548579182015b82811115620005475782518255916020019190600101906200052a565b5b5090506200055791906200055b565b5090565b5b80821115620005765760008160009055506001016200055c565b5090565b6000604051905090565b600080fd5b600080fd5b600080fd5b600080fd5b6000601f19601f8301169050919050565b7f4e487b7100000000000000000000000000000000000000000000000000000000600052604160045260246000fd5b620005e38262000598565b810181811067ffffffffffffffff82111715620006055762000604620005a9565b5b80604052505050565b60006200061a6200057a565b9050620006288282620005d8565b919050565b600067ffffffffffffffff8211156200064b576200064a620005a9565b5b620006568262000598565b9050602081019050919050565b60005b838110156200068357808201518184015260208101905062000666565b8381111562000693576000848401525b50505050565b6000620006b0620006aa846200062d565b6200060e565b905082815260208101848484011115620006cf57620006ce62000593565b5b620006dc84828562000663565b509392505050565b600082601f830112620006fc57620006fb6200058e565b5b81516200070e84826020860162000699565b91505092915050565b6000819050919050565b6200072c8162000717565b81146200073857600080fd5b50565b6000815190506200074c8162000721565b92915050565b60008115159050919050565b620007698162000752565b81146200077557600080fd5b50565b60008151905062000789816200075e565b92915050565b600080600080600060a08688031215620007ae57620007ad62000584565b5b600086015167ffffffffffffffff811115620007cf57620007ce62000589565b5b620007dd88828901620006e4565b955050602086015167ffffffffffffffff81111562000801576200080062000589565b5b6200080f88828901620006e4565b945050604062000822888289016200073b565b9350506060620008358882890162000778565b9250506080620008488882890162000778565b9150509295509295909350565b7f4e487b7100000000000000000000000000000000000000000000000000000000600052601160045260246000fd5b60008160011c9050919050565b6000808291508390505b6001851115620008e357808604811115620008bb57620008ba62000855565b5b6001851615620008cb5780820291505b8081029050620008db8562000884565b94506200089b565b94509492505050565b600082620008fe5760019050620009d1565b816200090e5760009050620009d1565b8160018114620009275760028114620009325762000968565b6001915050620009d1565b60ff84111562000947576200094662000855565b5b8360020a91508482111562000961576200096062000855565b5b50620009d1565b5060208310610133831016604e8410600b8410161715620009a25782820a9050838111156200099c576200099b62000855565b5b620009d1565b620009b1848484600162000891565b92509050818404811115620009cb57620009ca62000855565b5b81810290505b9392505050565b600060ff82169050919050565b6000620009f28262000717565b9150620009ff83620009d8565b925062000a2e7fffffffffffffffffffffffffffffffffffffffffffffffffffffffffffffffff8484620008ec565b905092915050565b600062000a438262000717565b915062000a508362000717565b9250817fffffffffffffffffffffffffffffffffffffffffffffffffffffffffffffffff048311821515161562000a8c5762000a8b62000855565b5b828202905092915050565b600082825260208201905092915050565b7f45524332303a206d696e7420746f20746865207a65726f206164647265737300600082015250565b600062000ae0601f8362000a97565b915062000aed8262000aa8565b602082019050919050565b6000602082019050818103600083015262000b138162000ad1565b9050919050565b600062000b278262000717565b915062000b348362000717565b9250827fffffffffffffffffffffffffffffffffffffffffffffffffffffffffffffffff0382111562000b6c5762000b6b62000855565b5b828201905092915050565b62000b828162000717565b82525050565b600060208201905062000b9f600083018462000b77565b92915050565b7f4f776e61626c653a206e6577206f776e657220697320746865207a65726f206160008201527f6464726573730000000000000000000000000000000000000000000000000000602082015250565b600062000c0360268362000a97565b915062000c108262000ba5565b604082019050919050565b6000602082019050818103600083015262000c368162000bf4565b9050919050565b7f4f776e61626c653a2063616c6c6572206973206e6f7420746865206f776e6572600082015250565b600062000c7560208362000a97565b915062000c828262000c3d565b602082019050919050565b6000602082019050818103600083015262000ca88162000c66565b9050919050565b7f4e487b7100000000000000000000000000000000000000000000000000000000600052602260045260246000fd5b6000600282049050600182168062000cf757607f821691505b6020821081141562000d0e5762000d0d62000caf565b5b50919050565b611de88062000d246000396000f3fe608060405234801561001057600080fd5b50600436106101215760003560e01c806370a08231116100ad57806395d89b411161007157806395d89b41146102f8578063a457c2d714610316578063a9059cbb14610346578063dd62ed3e14610376578063f2fde38b146103a657610121565b806370a0823114610266578063715018a61461029657806379cc6790146102a0578063883356d9146102bc5780638da5cb5b146102da57610121565b8063313ce567116100f4578063313ce567146101c257806339509351146101e057806340c10f191461021057806342966c681461022c57806346b45af71461024857610121565b806306fdde0314610126578063095ea7b31461014457806318160ddd1461017457806323b872dd14610192575b600080fd5b61012e6103c2565b60405161013b91906112b1565b60405180910390f35b61015e6004803603810190610159919061136c565b610454565b60405161016b91906113c7565b60405180910390f35b61017c610477565b60405161018991906113f1565b60405180910390f35b6101ac60048036038101906101a7919061140c565b610481565b6040516101b991906113c7565b60405180910390f35b6101ca6104b0565b6040516101d7919061147b565b60405180910390f35b6101fa60048036038101906101f5919061136c565b6104b9565b60405161020791906113c7565b60405180910390f35b61022a6004803603810190610225919061136c565b6104f0565b005b61024660048036038101906102419190611496565b61054d565b005b6102506105a8565b60405161025d91906113c7565b60405180910390f35b610280600480360381019061027b91906114c3565b6105bf565b60405161028d91906113f1565b60405180910390f35b61029e610607565b005b6102ba60048036038101906102b5919061136c565b61061b565b005b6102c461063b565b6040516102d191906113c7565b60405180910390f35b6102e2610652565b6040516102ef91906114ff565b60405180910390f35b61030061067c565b60405161030d91906112b1565b60405180910390f35b610330600480360381019061032b919061136c565b61070e565b60405161033d91906113c7565b60405180910390f35b610360600480360381019061035b919061136c565b610785565b60405161036d91906113c7565b60405180910390f35b610390600480360381019061038b919061151a565b6107a8565b60405161039d91906113f1565b60405180910390f35b6103c060048036038101906103bb91906114c3565b61082f565b005b6060600380546103d190611589565b80601f01602080910402602001604051908101604052809291908181526020018280546103fd90611589565b801561044a5780601f1061041f5761010080835404028352916020019161044a565b820191906000526020600020905b81548152906001019060200180831161042d57829003601f168201915b5050505050905090565b60008061045f610a13565b905061046c818585610a1b565b600191505092915050565b6000600254905090565b60008061048c610a13565b9050610499858285610be6565b6104a4858585610c72565b60019150509392505050565b60006012905090565b6000806104c4610a13565b90506104e58185856104d685896107a8565b6104e091906115ea565b610a1b565b600191505092915050565b6104f8610ef3565b6105006105a8565b61053f576040517f08c379a00000000000000000000000000000000000000000000000000000000081526004016105369061168c565b60405180910390fd5b61054982826108b3565b5050565b61055561063b565b610594576040517f08c379a000000000000000000000000000000000000000000000000000000000815260040161058b906116f8565b60405180910390fd5b6105a561059f610a13565b82610f71565b50565b6000600560149054906101000a900460ff16905090565b60008060008373ffffffffffffffffffffffffffffffffffffffff1673ffffffffffffffffffffffffffffffffffffffff168152602001908152602001600020549050919050565b61060f610ef3565b6106196000611148565b565b61062d82610627610a13565b83610be6565b6106378282610f71565b5050565b6000600560159054906101000a900460ff16905090565b6000600560009054906101000a900473ffffffffffffffffffffffffffffffffffffffff16905090565b60606004805461068b90611589565b80601f01602080910402602001604051908101604052809291908181526020018280546106b790611589565b80156107045780601f106106d957610100808354040283529160200191610704565b820191906000526020600020905b8154815290600101906020018083116106e757829003601f168201915b5050505050905090565b600080610719610a13565b9050600061072782866107a8565b90508381101561076c576040517f08c379a00000000000000000000000000000000000000000000000000000000081526004016107639061178a565b60405180910390fd5b6107798286868403610a1b565b60019250505092915050565b600080610790610a13565b905061079d818585610c72565b600191505092915050565b6000600160008473ffffffffffffffffffffffffffffffffffffffff1673ffffffffffffffffffffffffffffffffffffffff16815260200190815260200160002060008373ffffffffffffffffffffffffffffffffffffffff1673ffffffffffffffffffffffffffffffffffffffff16815260200190815260200160002054905092915050565b610837610ef3565b600073ffffffffffffffffffffffffffffffffffffffff168173ffffffffffffffffffffffffffffffffffffffff1614156108a7576040517f08c379a000000000000000000000000000000000000000000000000000000000815260040161089e9061181c565b60405180910390fd5b6108b081611148565b50565b600073ffffffffffffffffffffffffffffffffffffffff168273ffffffffffffffffffffffffffffffffffffffff161415610923576040517f08c379a000000000000000000000000000000000000000000000000000000000815260040161091a90611888565b60405180910390fd5b61092f6000838361120e565b806002600082825461094191906115ea565b92505081905550806000808473ffffffffffffffffffffffffffffffffffffffff1673ffffffffffffffffffffffffffffffffffffffff168152602001908152602001600020600082825461099691906115ea565b925050819055508173ffffffffffffffffffffffffffffffffffffffff16600073ffffffffffffffffffffffffffffffffffffffff167fddf252ad1be2c89b69c2b068fc378daa952ba7f163c4a11628f55a4df523b3ef836040516109fb91906113f1565b60405180910390a3610a0f60008383611213565b5050565b600033905090565b600073ffffffffffffffffffffffffffffffffffffffff168373ffffffffffffffffffffffffffffffffffffffff161415610a8b576040517f08c379a0000000000000000000000000000000000000000000000000000000008152600401610a829061191a565b60405180910390fd5b600073ffffffffffffffffffffffffffffffffffffffff168273ffffffffffffffffffffffffffffffffffffffff161415610afb576040517f08c379a0000000000000000000000000000000000000000000000000000000008152600401610af2906119ac565b60405180910390fd5b80600160008573ffffffffffffffffffffffffffffffffffffffff1673ffffffffffffffffffffffffffffffffffffffff16815260200190815260200160002060008473ffffffffffffffffffffffffffffffffffffffff1673ffffffffffffffffffffffffffffffffffffffff168152602001908152602001600020819055508173ffffffffffffffffffffffffffffffffffffffff168373ffffffffffffffffffffffffffffffffffffffff167f8c5be1e5ebec7d5bd14f71427d1e84f3dd0314c0f7b2291e5b200ac8c7c3b92583604051610bd991906113f1565b60405180910390a3505050565b6000610bf284846107a8565b90507fffffffffffffffffffffffffffffffffffffffffffffffffffffffffffffffff8114610c6c5781811015610c5e576040517f08c379a0000000000000000000000000000000000000000000000000000000008152600401610c5590611a18565b60405180910390fd5b610c6b8484848403610a1b565b5b50505050565b600073ffffffffffffffffffffffffffffffffffffffff168373ffffffffffffffffffffffffffffffffffffffff161415610ce2576040517f08c379a0000000000000000000000000000000000000000000000000000000008152600401610cd990611aaa565b60405180910390fd5b600073ffffffffffffffffffffffffffffffffffffffff168273ffffffffffffffffffffffffffffffffffffffff161415610d52576040517f08c379a0000000000000000000000000000000000000000000000000000000008152600401610d4990611b3c565b60405180910390fd5b610d5d83838361120e565b60008060008573ffffffffffffffffffffffffffffffffffffffff1673ffffffffffffffffffffffffffffffffffffffff16815260200190815260200160002054905081811015610de3576040517f08c379a0000000000000000000000000000000000000000000000000000000008152600401610dda90611bce565b60405180910390fd5b8181036000808673ffffffffffffffffffffffffffffffffffffffff1673ffffffffffffffffffffffffffffffffffffffff16815260200190815260200160002081905550816000808573ffffffffffffffffffffffffffffffffffffffff1673ffffffffffffffffffffffffffffffffffffffff1681526020019081526020016000206000828254610e7691906115ea565b925050819055508273ffffffffffffffffffffffffffffffffffffffff168473ffffffffffffffffffffffffffffffffffffffff167fddf252ad1be2c89b69c2b068fc378daa952ba7f163c4a11628f55a4df523b3ef84604051610eda91906113f1565b60405180910390a3610eed848484611213565b50505050565b610efb610a13565b73ffffffffffffffffffffffffffffffffffffffff16610f19610652565b73ffffffffffffffffffffffffffffffffffffffff1614610f6f576040517f08c379a0000000000000000000000000000000000000000000000000000000008152600401610f6690611c3a565b60405180910390fd5b565b600073ffffffffffffffffffffffffffffffffffffffff168273ffffffffffffffffffffffffffffffffffffffff161415610fe1576040517f08c379a0000000000000000000000000000000000000000000000000000000008152600401610fd890611ccc565b60405180910390fd5b610fed8260008361120e565b60008060008473ffffffffffffffffffffffffffffffffffffffff1673ffffffffffffffffffffffffffffffffffffffff16815260200190815260200160002054905081811015611073576040517f08c379a000000000000000000000000000000000000000000000000000000000815260040161106a90611d5e565b60405180910390fd5b8181036000808573ffffffffffffffffffffffffffffffffffffffff1673ffffffffffffffffffffffffffffffffffffffff1681526020019081526020016000208190555081600260008282546110ca9190611d7e565b92505081905550600073ffffffffffffffffffffffffffffffffffffffff168373ffffffffffffffffffffffffffffffffffffffff167fddf252ad1be2c89b69c2b068fc378daa952ba7f163c4a11628f55a4df523b3ef8460405161112f91906113f1565b60405180910390a361114383600084611213565b505050565b6000600560009054906101000a900473ffffffffffffffffffffffffffffffffffffffff16905081600560006101000a81548173ffffffffffffffffffffffffffffffffffffffff021916908373ffffffffffffffffffffffffffffffffffffffff1602179055508173ffffffffffffffffffffffffffffffffffffffff168173ffffffffffffffffffffffffffffffffffffffff167f8be0079c531659141344cd1fd0a4f28419497f9722a3daafe3b4186f6b6457e060405160405180910390a35050565b505050565b505050565b600081519050919050565b600082825260208201905092915050565b60005b83811015611252578082015181840152602081019050611237565b83811115611261576000848401525b50505050565b6000601f19601f8301169050919050565b600061128382611218565b61128d8185611223565b935061129d818560208601611234565b6112a681611267565b840191505092915050565b600060208201905081810360008301526112cb8184611278565b905092915050565b600080fd5b600073ffffffffffffffffffffffffffffffffffffffff82169050919050565b6000611303826112d8565b9050919050565b611313816112f8565b811461131e57600080fd5b50565b6000813590506113308161130a565b92915050565b6000819050919050565b61134981611336565b811461135457600080fd5b50565b60008135905061136681611340565b92915050565b60008060408385031215611383576113826112d3565b5b600061139185828601611321565b92505060206113a285828601611357565b9150509250929050565b60008115159050919050565b6113c1816113ac565b82525050565b60006020820190506113dc60008301846113b8565b92915050565b6113eb81611336565b82525050565b600060208201905061140660008301846113e2565b92915050565b600080600060608486031215611425576114246112d3565b5b600061143386828701611321565b935050602061144486828701611321565b925050604061145586828701611357565b9150509250925092565b600060ff82169050919050565b6114758161145f565b82525050565b6000602082019050611490600083018461146c565b92915050565b6000602082840312156114ac576114ab6112d3565b5b60006114ba84828501611357565b91505092915050565b6000602082840312156114d9576114d86112d3565b5b60006114e784828501611321565b91505092915050565b6114f9816112f8565b82525050565b600060208201905061151460008301846114f0565b92915050565b60008060408385031215611531576115306112d3565b5b600061153f85828601611321565b925050602061155085828601611321565b9150509250929050565b7f4e487b7100000000000000000000000000000000000000000000000000000000600052602260045260246000fd5b600060028204905060018216806115a157607f821691505b602082108114156115b5576115b461155a565b5b50919050565b7f4e487b7100000000000000000000000000000000000000000000000000000000600052601160045260246000fd5b60006115f582611336565b915061160083611336565b9250827fffffffffffffffffffffffffffffffffffffffffffffffffffffffffffffffff03821115611635576116346115bb565b5b828201905092915050565b7f546f6b656e206973206e6f74206d696e7461626c650000000000000000000000600082015250565b6000611676601583611223565b915061168182611640565b602082019050919050565b600060208201905081810360008301526116a581611669565b9050919050565b7f546f6b656e2063616e6e6f74206265206275726e656400000000000000000000600082015250565b60006116e2601683611223565b91506116ed826116ac565b602082019050919050565b60006020820190508181036000830152611711816116d5565b9050919050565b7f45524332303a2064656372656173656420616c6c6f77616e63652062656c6f7760008201527f207a65726f000000000000000000000000000000000000000000000000000000602082015250565b6000611774602583611223565b915061177f82611718565b604082019050919050565b600060208201905081810360008301526117a381611767565b9050919050565b7f4f776e61626c653a206e6577206f776e657220697320746865207a65726f206160008201527f6464726573730000000000000000000000000000000000000000000000000000602082015250565b6000611806602683611223565b9150611811826117aa565b604082019050919050565b60006020820190508181036000830152611835816117f9565b9050919050565b7f45524332303a206d696e7420746f20746865207a65726f206164647265737300600082015250565b6000611872601f83611223565b915061187d8261183c565b602082019050919050565b600060208201905081810360008301526118a181611865565b9050919050565b7f45524332303a20617070726f76652066726f6d20746865207a65726f2061646460008201527f7265737300000000000000000000000000000000000000000000000000000000602082015250565b6000611904602483611223565b915061190f826118a8565b604082019050919050565b60006020820190508181036000830152611933816118f7565b9050919050565b7f45524332303a20617070726f766520746f20746865207a65726f20616464726560008201527f7373000000000000000000000000000000000000000000000000000000000000602082015250565b6000611996602283611223565b91506119a18261193a565b604082019050919050565b600060208201905081810360008301526119c581611989565b9050919050565b7f45524332303a20696e73756666696369656e7420616c6c6f77616e6365000000600082015250565b6000611a02601d83611223565b9150611a0d826119cc565b602082019050919050565b60006020820190508181036000830152611a31816119f5565b9050919050565b7f45524332303a207472616e736665722066726f6d20746865207a65726f20616460008201527f6472657373000000000000000000000000000000000000000000000000000000602082015250565b6000611a94602583611223565b9150611a9f82611a38565b604082019050919050565b60006020820190508181036000830152611ac381611a87565b9050919050565b7f45524332303a207472616e7366657220746f20746865207a65726f206164647260008201527f6573730000000000000000000000000000000000000000000000000000000000602082015250565b6000611b26602383611223565b9150611b3182611aca565b604082019050919050565b60006020820190508181036000830152611b5581611b19565b9050919050565b7f45524332303a207472616e7366657220616d6f756e742065786365656473206260008201527f616c616e63650000000000000000000000000000000000000000000000000000602082015250565b6000611bb8602683611223565b9150611bc382611b5c565b604082019050919050565b60006020820190508181036000830152611be781611bab565b9050919050565b7f4f776e61626c653a2063616c6c6572206973206e6f7420746865206f776e6572600082015250565b6000611c24602083611223565b9150611c2f82611bee565b602082019050919050565b60006020820190508181036000830152611c5381611c17565b9050919050565b7f45524332303a206275726e2066726f6d20746865207a65726f2061646472657360008201527f7300000000000000000000000000000000000000000000000000000000000000602082015250565b6000611cb6602183611223565b9150611cc182611c5a565b604082019050919050565b60006020820190508181036000830152611ce581611ca9565b9050919050565b7f45524332303a206275726e20616d6f756e7420657863656564732062616c616e60008201527f6365000000000000000000000000000000000000000000000000000000000000602082015250565b6000611d48602283611223565b9150611d5382611cec565b604082019050919050565b60006020820190508181036000830152611d7781611d3b565b9050919050565b6000611d8982611336565b9150611d9483611336565b925082821015611da757611da66115bb565b5b82820390509291505056fea26469706673582212203740a722ee5732bbe9d0beedf82ca791264a1c4ca72bee8a04ef05318e47d3f064736f6c6343000809003360806040523480156200001157600080fd5b5060405162002be438038062002be4833981810160405281019062000037919062000850565b85858160039080519060200190620000519291906200054d565b5080600490805190602001906200006a9291906200054d565b5050506200008d620000816200019360201b60201c565b6200019b60201b60201c565b6000600560149054906101000a900460ff1660ff161415620000e6576040517f08c379a0000000000000000000000000000000000000000000000000000000008152600401620000dd906200098b565b60405180910390fd5b82600560156101000a81548160ff02191690831515021790555081600560166101000a81548160ff02191690831515021790555080600560146101000a81548160ff021916908360ff16021790555062000176326200014a6200026160201b60201c565b600a62000158919062000b30565b8662000165919062000b81565b6200027860201b620008511760201c565b6200018732620003f160201b60201c565b50505050505062000e4e565b600033905090565b6000600560009054906101000a900473ffffffffffffffffffffffffffffffffffffffff16905081600560006101000a81548173ffffffffffffffffffffffffffffffffffffffff021916908373ffffffffffffffffffffffffffffffffffffffff1602179055508173ffffffffffffffffffffffffffffffffffffffff168173ffffffffffffffffffffffffffffffffffffffff167f8be0079c531659141344cd1fd0a4f28419497f9722a3daafe3b4186f6b6457e060405160405180910390a35050565b6000600560149054906101000a900460ff16905090565b600073ffffffffffffffffffffffffffffffffffffffff168273ffffffffffffffffffffffffffffffffffffffff161415620002eb576040517f08c379a0000000000000000000000000000000000000000000000000000000008152600401620002e29062000c32565b60405180910390fd5b620002ff600083836200048860201b60201c565b806002600082825462000313919062000c54565b92505081905550806000808473ffffffffffffffffffffffffffffffffffffffff1673ffffffffffffffffffffffffffffffffffffffff16815260200190815260200160002060008282546200036a919062000c54565b925050819055508173ffffffffffffffffffffffffffffffffffffffff16600073ffffffffffffffffffffffffffffffffffffffff167fddf252ad1be2c89b69c2b068fc378daa952ba7f163c4a11628f55a4df523b3ef83604051620003d1919062000cc2565b60405180910390a3620003ed600083836200048d60201b60201c565b5050565b620004016200049260201b60201c565b600073ffffffffffffffffffffffffffffffffffffffff168173ffffffffffffffffffffffffffffffffffffffff16141562000474576040517f08c379a00000000000000000000000000000000000000000000000000000000081526004016200046b9062000d55565b60405180910390fd5b62000485816200019b60201b60201c565b50565b505050565b505050565b620004a26200019360201b60201c565b73ffffffffffffffffffffffffffffffffffffffff16620004c86200052360201b60201c565b73ffffffffffffffffffffffffffffffffffffffff161462000521576040517f08c379a0000000000000000000000000000000000000000000000000000000008152600401620005189062000dc7565b60405180910390fd5b565b6000600560009054906101000a900473ffffffffffffffffffffffffffffffffffffffff16905090565b8280546200055b9062000e18565b90600052602060002090601f0160209004810192826200057f5760008555620005cb565b82601f106200059a57805160ff1916838001178555620005cb565b82800160010185558215620005cb579182015b82811115620005ca578251825591602001919060010190620005ad565b5b509050620005da9190620005de565b5090565b5b80821115620005f9576000816000905550600101620005df565b5090565b6000604051905090565b600080fd5b600080fd5b600080fd5b600080fd5b6000601f19601f8301169050919050565b7f4e487b7100000000000000000000000000000000000000000000000000000000600052604160045260246000fd5b62000666826200061b565b810181811067ffffffffffffffff821117156200068857620006876200062c565b5b80604052505050565b60006200069d620005fd565b9050620006ab82826200065b565b919050565b600067ffffffffffffffff821115620006ce57620006cd6200062c565b5b620006d9826200061b565b9050602081019050919050565b60005b8381101562000706578082015181840152602081019050620006e9565b8381111562000716576000848401525b50505050565b6000620007336200072d84620006b0565b62000691565b90508281526020810184848401111562000752576200075162000616565b5b6200075f848285620006e6565b509392505050565b600082601f8301126200077f576200077e62000611565b5b8151620007918482602086016200071c565b91505092915050565b6000819050919050565b620007af816200079a565b8114620007bb57600080fd5b50565b600081519050620007cf81620007a4565b92915050565b60008115159050919050565b620007ec81620007d5565b8114620007f857600080fd5b50565b6000815190506200080c81620007e1565b92915050565b600060ff82169050919050565b6200082a8162000812565b81146200083657600080fd5b50565b6000815190506200084a816200081f565b92915050565b60008060008060008060c0878903121562000870576200086f62000607565b5b600087015167ffffffffffffffff8111156200089157620008906200060c565b5b6200089f89828a0162000767565b965050602087015167ffffffffffffffff811115620008c357620008c26200060c565b5b620008d189828a0162000767565b9550506040620008e489828a01620007be565b9450506060620008f789828a01620007fb565b93505060806200090a89828a01620007fb565b92505060a06200091d89828a0162000839565b9150509295509295509295565b600082825260208201905092915050565b7f446563696d616c732063616e6e6f74206265207a65726f000000000000000000600082015250565b6000620009736017836200092a565b915062000980826200093b565b602082019050919050565b60006020820190508181036000830152620009a68162000964565b9050919050565b7f4e487b7100000000000000000000000000000000000000000000000000000000600052601160045260246000fd5b60008160011c9050919050565b6000808291508390505b600185111562000a3b5780860481111562000a135762000a12620009ad565b5b600185161562000a235780820291505b808102905062000a3385620009dc565b9450620009f3565b94509492505050565b60008262000a56576001905062000b29565b8162000a66576000905062000b29565b816001811462000a7f576002811462000a8a5762000ac0565b600191505062000b29565b60ff84111562000a9f5762000a9e620009ad565b5b8360020a91508482111562000ab95762000ab8620009ad565b5b5062000b29565b5060208310610133831016604e8410600b841016171562000afa5782820a90508381111562000af45762000af3620009ad565b5b62000b29565b62000b098484846001620009e9565b9250905081840481111562000b235762000b22620009ad565b5b81810290505b9392505050565b600062000b3d826200079a565b915062000b4a8362000812565b925062000b797fffffffffffffffffffffffffffffffffffffffffffffffffffffffffffffffff848462000a44565b905092915050565b600062000b8e826200079a565b915062000b9b836200079a565b9250817fffffffffffffffffffffffffffffffffffffffffffffffffffffffffffffffff048311821515161562000bd75762000bd6620009ad565b5b828202905092915050565b7f45524332303a206d696e7420746f20746865207a65726f206164647265737300600082015250565b600062000c1a601f836200092a565b915062000c278262000be2565b602082019050919050565b6000602082019050818103600083015262000c4d8162000c0b565b9050919050565b600062000c61826200079a565b915062000c6e836200079a565b9250827fffffffffffffffffffffffffffffffffffffffffffffffffffffffffffffffff0382111562000ca65762000ca5620009ad565b5b828201905092915050565b62000cbc816200079a565b82525050565b600060208201905062000cd9600083018462000cb1565b92915050565b7f4f776e61626c653a206e6577206f776e657220697320746865207a65726f206160008201527f6464726573730000000000000000000000000000000000000000000000000000602082015250565b600062000d3d6026836200092a565b915062000d4a8262000cdf565b604082019050919050565b6000602082019050818103600083015262000d708162000d2e565b9050919050565b7f4f776e61626c653a2063616c6c6572206973206e6f7420746865206f776e6572600082015250565b600062000daf6020836200092a565b915062000dbc8262000d77565b602082019050919050565b6000602082019050818103600083015262000de28162000da0565b9050919050565b7f4e487b7100000000000000000000000000000000000000000000000000000000600052602260045260246000fd5b6000600282049050600182168062000e3157607f821691505b6020821081141562000e485762000e4762000de9565b5b50919050565b611d868062000e5e6000396000f3fe608060405234801561001057600080fd5b506004361061010b5760003560e01c806370a08231116100a257806395d89b411161007157806395d89b41146102a6578063a457c2d7146102c4578063a9059cbb146102f4578063dd62ed3e14610324578063f2fde38b146103545761010b565b806370a0823114610232578063715018a61461026257806379cc67901461026c5780638da5cb5b146102885761010b565b8063313ce567116100de578063313ce567146101ac57806339509351146101ca57806340c10f19146101fa57806342966c68146102165761010b565b806306fdde0314610110578063095ea7b31461012e57806318160ddd1461015e57806323b872dd1461017c575b600080fd5b610118610370565b604051610125919061124f565b60405180910390f35b6101486004803603810190610143919061130a565b610402565b6040516101559190611365565b60405180910390f35b610166610425565b604051610173919061138f565b60405180910390f35b610196600480360381019061019191906113aa565b61042f565b6040516101a39190611365565b60405180910390f35b6101b461045e565b6040516101c19190611419565b60405180910390f35b6101e460048036038101906101df919061130a565b610475565b6040516101f19190611365565b60405180910390f35b610214600480360381019061020f919061130a565b6104ac565b005b610230600480360381019061022b9190611434565b610511565b005b61024c60048036038101906102479190611461565b610574565b604051610259919061138f565b60405180910390f35b61026a6105bc565b005b6102866004803603810190610281919061130a565b6105d0565b005b6102906105f0565b60405161029d919061149d565b60405180910390f35b6102ae61061a565b6040516102bb919061124f565b60405180910390f35b6102de60048036038101906102d9919061130a565b6106ac565b6040516102eb9190611365565b60405180910390f35b61030e6004803603810190610309919061130a565b610723565b60405161031b9190611365565b60405180910390f35b61033e600480360381019061033991906114b8565b610746565b60405161034b919061138f565b60405180910390f35b61036e60048036038101906103699190611461565b6107cd565b005b60606003805461037f90611527565b80601f01602080910402602001604051908101604052809291908181526020018280546103ab90611527565b80156103f85780601f106103cd576101008083540402835291602001916103f8565b820191906000526020600020905b8154815290600101906020018083116103db57829003601f168201915b5050505050905090565b60008061040d6109b1565b905061041a8185856109b9565b600191505092915050565b6000600254905090565b60008061043a6109b1565b9050610447858285610b84565b610452858585610c10565b60019150509392505050565b6000600560149054906101000a900460ff16905090565b6000806104806109b1565b90506104a18185856104928589610746565b61049c9190611588565b6109b9565b600191505092915050565b6104b4610e91565b600560159054906101000a900460ff16610503576040517f08c379a00000000000000000000000000000000000000000000000000000000081526004016104fa9061162a565b60405180910390fd5b61050d8282610851565b5050565b600560169054906101000a900460ff16610560576040517f08c379a000000000000000000000000000000000000000000000000000000000815260040161055790611696565b60405180910390fd5b61057161056b6109b1565b82610f0f565b50565b60008060008373ffffffffffffffffffffffffffffffffffffffff1673ffffffffffffffffffffffffffffffffffffffff168152602001908152602001600020549050919050565b6105c4610e91565b6105ce60006110e6565b565b6105e2826105dc6109b1565b83610b84565b6105ec8282610f0f565b5050565b6000600560009054906101000a900473ffffffffffffffffffffffffffffffffffffffff16905090565b60606004805461062990611527565b80601f016020809104026020016040519081016040528092919081815260200182805461065590611527565b80156106a25780601f10610677576101008083540402835291602001916106a2565b820191906000526020600020905b81548152906001019060200180831161068557829003601f168201915b5050505050905090565b6000806106b76109b1565b905060006106c58286610746565b90508381101561070a576040517f08c379a000000000000000000000000000000000000000000000000000000000815260040161070190611728565b60405180910390fd5b61071782868684036109b9565b60019250505092915050565b60008061072e6109b1565b905061073b818585610c10565b600191505092915050565b6000600160008473ffffffffffffffffffffffffffffffffffffffff1673ffffffffffffffffffffffffffffffffffffffff16815260200190815260200160002060008373ffffffffffffffffffffffffffffffffffffffff1673ffffffffffffffffffffffffffffffffffffffff16815260200190815260200160002054905092915050565b6107d5610e91565b600073ffffffffffffffffffffffffffffffffffffffff168173ffffffffffffffffffffffffffffffffffffffff161415610845576040517f08c379a000000000000000000000000000000000000000000000000000000000815260040161083c906117ba565b60405180910390fd5b61084e816110e6565b50565b600073ffffffffffffffffffffffffffffffffffffffff168273ffffffffffffffffffffffffffffffffffffffff1614156108c1576040517f08c379a00000000000000000000000000000000000000000000000000000000081526004016108b890611826565b60405180910390fd5b6108cd600083836111ac565b80600260008282546108df9190611588565b92505081905550806000808473ffffffffffffffffffffffffffffffffffffffff1673ffffffffffffffffffffffffffffffffffffffff16815260200190815260200160002060008282546109349190611588565b925050819055508173ffffffffffffffffffffffffffffffffffffffff16600073ffffffffffffffffffffffffffffffffffffffff167fddf252ad1be2c89b69c2b068fc378daa952ba7f163c4a11628f55a4df523b3ef83604051610999919061138f565b60405180910390a36109ad600083836111b1565b5050565b600033905090565b600073ffffffffffffffffffffffffffffffffffffffff168373ffffffffffffffffffffffffffffffffffffffff161415610a29576040517f08c379a0000000000000000000000000000000000000000000000000000000008152600401610a20906118b8565b60405180910390fd5b600073ffffffffffffffffffffffffffffffffffffffff168273ffffffffffffffffffffffffffffffffffffffff161415610a99576040517f08c379a0000000000000000000000000000000000000000000000000000000008152600401610a909061194a565b60405180910390fd5b80600160008573ffffffffffffffffffffffffffffffffffffffff1673ffffffffffffffffffffffffffffffffffffffff16815260200190815260200160002060008473ffffffffffffffffffffffffffffffffffffffff1673ffffffffffffffffffffffffffffffffffffffff168152602001908152602001600020819055508173ffffffffffffffffffffffffffffffffffffffff168373ffffffffffffffffffffffffffffffffffffffff167f8c5be1e5ebec7d5bd14f71427d1e84f3dd0314c0f7b2291e5b200ac8c7c3b92583604051610b77919061138f565b60405180910390a3505050565b6000610b908484610746565b90507fffffffffffffffffffffffffffffffffffffffffffffffffffffffffffffffff8114610c0a5781811015610bfc576040517f08c379a0000000000000000000000000000000000000000000000000000000008152600401610bf3906119b6565b60405180910390fd5b610c0984848484036109b9565b5b50505050565b600073ffffffffffffffffffffffffffffffffffffffff168373ffffffffffffffffffffffffffffffffffffffff161415610c80576040517f08c379a0000000000000000000000000000000000000000000000000000000008152600401610c7790611a48565b60405180910390fd5b600073ffffffffffffffffffffffffffffffffffffffff168273ffffffffffffffffffffffffffffffffffffffff161415610cf0576040517f08c379a0000000000000000000000000000000000000000000000000000000008152600401610ce790611ada565b60405180910390fd5b610cfb8383836111ac565b60008060008573ffffffffffffffffffffffffffffffffffffffff1673ffffffffffffffffffffffffffffffffffffffff16815260200190815260200160002054905081811015610d81576040517f08c379a0000000000000000000000000000000000000000000000000000000008152600401610d7890611b6c565b60405180910390fd5b8181036000808673ffffffffffffffffffffffffffffffffffffffff1673ffffffffffffffffffffffffffffffffffffffff16815260200190815260200160002081905550816000808573ffffffffffffffffffffffffffffffffffffffff1673ffffffffffffffffffffffffffffffffffffffff1681526020019081526020016000206000828254610e149190611588565b925050819055508273ffffffffffffffffffffffffffffffffffffffff168473ffffffffffffffffffffffffffffffffffffffff167fddf252ad1be2c89b69c2b068fc378daa952ba7f163c4a11628f55a4df523b3ef84604051610e78919061138f565b60405180910390a3610e8b8484846111b1565b50505050565b610e996109b1565b73ffffffffffffffffffffffffffffffffffffffff16610eb76105f0565b73ffffffffffffffffffffffffffffffffffffffff1614610f0d576040517f08c379a0000000000000000000000000000000000000000000000000000000008152600401610f0490611bd8565b60405180910390fd5b565b600073ffffffffffffffffffffffffffffffffffffffff168273ffffffffffffffffffffffffffffffffffffffff161415610f7f576040517f08c379a0000000000000000000000000000000000000000000000000000000008152600401610f7690611c6a565b60405180910390fd5b610f8b826000836111ac565b60008060008473ffffffffffffffffffffffffffffffffffffffff1673ffffffffffffffffffffffffffffffffffffffff16815260200190815260200160002054905081811015611011576040517f08c379a000000000000000000000000000000000000000000000000000000000815260040161100890611cfc565b60405180910390fd5b8181036000808573ffffffffffffffffffffffffffffffffffffffff1673ffffffffffffffffffffffffffffffffffffffff1681526020019081526020016000208190555081600260008282546110689190611d1c565b92505081905550600073ffffffffffffffffffffffffffffffffffffffff168373ffffffffffffffffffffffffffffffffffffffff167fddf252ad1be2c89b69c2b068fc378daa952ba7f163c4a11628f55a4df523b3ef846040516110cd919061138f565b60405180910390a36110e1836000846111b1565b505050565b6000600560009054906101000a900473ffffffffffffffffffffffffffffffffffffffff16905081600560006101000a81548173ffffffffffffffffffffffffffffffffffffffff021916908373ffffffffffffffffffffffffffffffffffffffff1602179055508173ffffffffffffffffffffffffffffffffffffffff168173ffffffffffffffffffffffffffffffffffffffff167f8be0079c531659141344cd1fd0a4f28419497f9722a3daafe3b4186f6b6457e060405160405180910390a35050565b505050565b505050565b600081519050919050565b600082825260208201905092915050565b60005b838110156111f05780820151818401526020810190506111d5565b838111156111ff576000848401525b50505050565b6000601f19601f8301169050919050565b6000611221826111b6565b61122b81856111c1565b935061123b8185602086016111d2565b61124481611205565b840191505092915050565b600060208201905081810360008301526112698184611216565b905092915050565b600080fd5b600073ffffffffffffffffffffffffffffffffffffffff82169050919050565b60006112a182611276565b9050919050565b6112b181611296565b81146112bc57600080fd5b50565b6000813590506112ce816112a8565b92915050565b6000819050919050565b6112e7816112d4565b81146112f257600080fd5b50565b600081359050611304816112de565b92915050565b6000806040838503121561132157611320611271565b5b600061132f858286016112bf565b9250506020611340858286016112f5565b9150509250929050565b60008115159050919050565b61135f8161134a565b82525050565b600060208201905061137a6000830184611356565b92915050565b611389816112d4565b82525050565b60006020820190506113a46000830184611380565b92915050565b6000806000606084860312156113c3576113c2611271565b5b60006113d1868287016112bf565b93505060206113e2868287016112bf565b92505060406113f3868287016112f5565b9150509250925092565b600060ff82169050919050565b611413816113fd565b82525050565b600060208201905061142e600083018461140a565b92915050565b60006020828403121561144a57611449611271565b5b6000611458848285016112f5565b91505092915050565b60006020828403121561147757611476611271565b5b6000611485848285016112bf565b91505092915050565b61149781611296565b82525050565b60006020820190506114b2600083018461148e565b92915050565b600080604083850312156114cf576114ce611271565b5b60006114dd858286016112bf565b92505060206114ee858286016112bf565b9150509250929050565b7f4e487b7100000000000000000000000000000000000000000000000000000000600052602260045260246000fd5b6000600282049050600182168061153f57607f821691505b60208210811415611553576115526114f8565b5b50919050565b7f4e487b7100000000000000000000000000000000000000000000000000000000600052601160045260246000fd5b6000611593826112d4565b915061159e836112d4565b9250827fffffffffffffffffffffffffffffffffffffffffffffffffffffffffffffffff038211156115d3576115d2611559565b5b828201905092915050565b7f546f6b656e206973206e6f74206d696e7461626c650000000000000000000000600082015250565b60006116146015836111c1565b915061161f826115de565b602082019050919050565b6000602082019050818103600083015261164381611607565b9050919050565b7f546f6b656e2063616e6e6f74206265206275726e656400000000000000000000600082015250565b60006116806016836111c1565b915061168b8261164a565b602082019050919050565b600060208201905081810360008301526116af81611673565b9050919050565b7f45524332303a2064656372656173656420616c6c6f77616e63652062656c6f7760008201527f207a65726f000000000000000000000000000000000000000000000000000000602082015250565b60006117126025836111c1565b915061171d826116b6565b604082019050919050565b6000602082019050818103600083015261174181611705565b9050919050565b7f4f776e61626c653a206e6577206f776e657220697320746865207a65726f206160008201527f6464726573730000000000000000000000000000000000000000000000000000602082015250565b60006117a46026836111c1565b91506117af82611748565b604082019050919050565b600060208201905081810360008301526117d381611797565b9050919050565b7f45524332303a206d696e7420746f20746865207a65726f206164647265737300600082015250565b6000611810601f836111c1565b915061181b826117da565b602082019050919050565b6000602082019050818103600083015261183f81611803565b9050919050565b7f45524332303a20617070726f76652066726f6d20746865207a65726f2061646460008201527f7265737300000000000000000000000000000000000000000000000000000000602082015250565b60006118a26024836111c1565b91506118ad82611846565b604082019050919050565b600060208201905081810360008301526118d181611895565b9050919050565b7f45524332303a20617070726f766520746f20746865207a65726f20616464726560008201527f7373000000000000000000000000000000000000000000000000000000000000602082015250565b60006119346022836111c1565b915061193f826118d8565b604082019050919050565b6000602082019050818103600083015261196381611927565b9050919050565b7f45524332303a20696e73756666696369656e7420616c6c6f77616e6365000000600082015250565b60006119a0601d836111c1565b91506119ab8261196a565b602082019050919050565b600060208201905081810360008301526119cf81611993565b9050919050565b7f45524332303a207472616e736665722066726f6d20746865207a65726f20616460008201527f6472657373000000000000000000000000000000000000000000000000000000602082015250565b6000611a326025836111c1565b9150611a3d826119d6565b604082019050919050565b60006020820190508181036000830152611a6181611a25565b9050919050565b7f45524332303a207472616e7366657220746f20746865207a65726f206164647260008201527f6573730000000000000000000000000000000000000000000000000000000000602082015250565b6000611ac46023836111c1565b9150611acf82611a68565b604082019050919050565b60006020820190508181036000830152611af381611ab7565b9050919050565b7f45524332303a207472616e7366657220616d6f756e742065786365656473206260008201527f616c616e63650000000000000000000000000000000000000000000000000000602082015250565b6000611b566026836111c1565b9150611b6182611afa565b604082019050919050565b60006020820190508181036000830152611b8581611b49565b9050919050565b7f4f776e61626c653a2063616c6c6572206973206e6f7420746865206f776e6572600082015250565b6000611bc26020836111c1565b9150611bcd82611b8c565b602082019050919050565b60006020820190508181036000830152611bf181611bb5565b9050919050565b7f45524332303a206275726e2066726f6d20746865207a65726f2061646472657360008201527f7300000000000000000000000000000000000000000000000000000000000000602082015250565b6000611c546021836111c1565b9150611c5f82611bf8565b604082019050919050565b60006020820190508181036000830152611c8381611c47565b9050919050565b7f45524332303a206275726e20616d6f756e7420657863656564732062616c616e60008201527f6365000000000000000000000000000000000000000000000000000000000000602082015250565b6000611ce66022836111c1565b9150611cf182611c8a565b604082019050919050565b60006020820190508181036000830152611d1581611cd9565b9050919050565b6000611d27826112d4565b9150611d32836112d4565b925082821015611d4557611d44611559565b5b82820390509291505056fea26469706673582212206ed1ea5adfa0437c1818e7f885c914f63f086ec4f5fc276418690921381c2a3c64736f6c63430008090033a2646970667358221220b5da0c68de4774d6700aa46f43b2ad4784eb9eb48fadaf1b517d57c1704baedc64736f6c63430008090033",
  "linkReferences": {},
  "deployedLinkReferences": {}
}