{
  "_format": "hh-sol-artifact-1",
  "contractName": "ERC20Factory",
  "sourceName": "contracts/ERC20Factory.sol",
  "abi": [
    {
      "anonymous": false,
      "inputs": [
        {
          "indexed": true,
          "internalType": "address",
          "name": "contractAddress",
          "type": "address"
        },
        {
          "indexed": true,
          "internalType": "address",
          "name": "creatorAddress",
          "type": "address"
        }
      ],
      "name": "TokenCreated",
      "type": "event"
    },
    {
      "inputs": [
        {
          "internalType": "string",
          "name": "name_",
          "type": "string"
        },
        {
          "internalType": "string",
          "name": "symbol_",
          "type": "string"
        },
        {
          "internalType": "uint256",
          "name": "initialSupply_",
          "type": "uint256"
        },
        {
          "internalType": "bool",
          "name": "isMintable_",
          "type": "bool"
        },
        {
          "internalType": "bool",
          "name": "isBurnable_",
          "type": "bool"
        }
      ],
      "name": "createToken",
      "outputs": [
        {
          "internalType": "address",
          "name": "",
          "type": "address"
        },
        {
          "internalType": "address",
          "name": "",
          "type": "address"
        }
      ],
      "stateMutability": "nonpayable",
      "type": "function"
    },
    {
      "inputs": [
        {
          "internalType": "string",
          "name": "name_",
          "type": "string"
        },
        {
          "internalType": "string",
          "name": "symbol_",
          "type": "string"
        },
        {
          "internalType": "uint256",
          "name": "initialSupply_",
          "type": "uint256"
        },
        {
          "internalType": "bool",
          "name": "isMintable_",
          "type": "bool"
        },
        {
          "internalType": "bool",
          "name": "isBurnable_",
          "type": "bool"
        },
        {
          "internalType": "uint8",
          "name": "decimals_",
          "type": "uint8"
        }
      ],
      "name": "createTokenDecimals",
      "outputs": [
        {
          "internalType": "address",
          "name": "",
          "type": "address"
        },
        {
          "internalType": "address",
          "name": "",
          "type": "address"
        }
      ],
      "stateMutability": "nonpayable",
      "type": "function"
    }
  ],
  "bytecode": "0x608060405234801561001057600080fd5b50613297806100206000396000f3fe60806040523480156200001157600080fd5b50600436106200003a5760003560e01c8063c6fc2aaf146200003f578063c8f0a4251462000087575b600080fd5b6200005662000050366004620002c9565b6200009e565b6040805173ffffffffffffffffffffffffffffffffffffffff93841681529290911660208301520160405180910390f35b620000566200009836600462000363565b62000137565b60008060008787878787604051620000b690620001d3565b620000c695949392919062000467565b604051809103906000f080158015620000e3573d6000803e3d6000fd5b50604051909150339073ffffffffffffffffffffffffffffffffffffffff8316907fd5f9bdf12adf29dab0248c349842c3822d53ae2bb4f36352f301630d018c813990600090a39733975095505050505050565b60008060008888888888886040516200015090620001e1565b6200016196959493929190620004b0565b604051809103906000f0801580156200017e573d6000803e3d6000fd5b50604051909150339073ffffffffffffffffffffffffffffffffffffffff8316907fd5f9bdf12adf29dab0248c349842c3822d53ae2bb4f36352f301630d018c813990600090a3983398509650505050505050565b611670806200050383390190565b6116ef8062001b7383390190565b7f4e487b7100000000000000000000000000000000000000000000000000000000600052604160045260246000fd5b600082601f8301126200023057600080fd5b813567ffffffffffffffff808211156200024e576200024e620001ef565b604051601f8301601f19908116603f01168101908282118183101715620002795762000279620001ef565b816040528381528660208588010111156200029357600080fd5b836020870160208301376000602085830101528094505050505092915050565b80358015158114620002c457600080fd5b919050565b600080600080600060a08688031215620002e257600080fd5b853567ffffffffffffffff80821115620002fb57600080fd5b6200030989838a016200021e565b965060208801359150808211156200032057600080fd5b506200032f888289016200021e565b945050604086013592506200034760608701620002b3565b91506200035760808701620002b3565b90509295509295909350565b60008060008060008060c087890312156200037d57600080fd5b863567ffffffffffffffff808211156200039657600080fd5b620003a48a838b016200021e565b97506020890135915080821115620003bb57600080fd5b50620003ca89828a016200021e565b95505060408701359350620003e260608801620002b3565b9250620003f260808801620002b3565b915060a087013560ff811681146200040957600080fd5b809150509295509295509295565b6000815180845260005b818110156200043f5760208185018101518683018201520162000421565b8181111562000452576000602083870101525b50601f01601f19169290920160200192915050565b60a0815260006200047c60a083018862000417565b828103602084015262000490818862000417565b604084019690965250509115156060830152151560809091015292915050565b60c081526000620004c560c083018962000417565b8281036020840152620004d9818962000417565b604084019790975250509215156060840152901515608083015260ff1660a0909101529291505056fe60806040523480156200001157600080fd5b50604051620016703803806200167083398101604081905262000034916200049c565b8451859085906200004d90600390602085019062000313565b5080516200006390600490602084019062000313565b505050620000806200007a620000f760201b60201c565b620000fb565b6005805461ffff60a01b1916600160a01b8415150260ff60a81b191617600160a81b83151502179055620000e132620000b7601290565b620000c490600a6200064a565b620000d0908662000662565b6200014d60201b620006671760201c565b620000ec3262000236565b5050505050620006dc565b3390565b600580546001600160a01b038381166001600160a01b0319831681179093556040519116919082907f8be0079c531659141344cd1fd0a4f28419497f9722a3daafe3b4186f6b6457e090600090a35050565b6001600160a01b038216620001a95760405162461bcd60e51b815260206004820152601f60248201527f45524332303a206d696e7420746f20746865207a65726f20616464726573730060448201526064015b60405180910390fd5b8060026000828254620001bd919062000684565b90915550506001600160a01b03821660009081526020819052604081208054839290620001ec90849062000684565b90915550506040518181526001600160a01b038316906000907fddf252ad1be2c89b69c2b068fc378daa952ba7f163c4a11628f55a4df523b3ef9060200160405180910390a35050565b62000240620002b5565b6001600160a01b038116620002a75760405162461bcd60e51b815260206004820152602660248201527f4f776e61626c653a206e6577206f776e657220697320746865207a65726f206160448201526564647265737360d01b6064820152608401620001a0565b620002b281620000fb565b50565b6005546001600160a01b03163314620003115760405162461bcd60e51b815260206004820181905260248201527f4f776e61626c653a2063616c6c6572206973206e6f7420746865206f776e65726044820152606401620001a0565b565b82805462000321906200069f565b90600052602060002090601f01602090048101928262000345576000855562000390565b82601f106200036057805160ff191683800117855562000390565b8280016001018555821562000390579182015b828111156200039057825182559160200191906001019062000373565b506200039e929150620003a2565b5090565b5b808211156200039e5760008155600101620003a3565b634e487b7160e01b600052604160045260246000fd5b600082601f830112620003e157600080fd5b81516001600160401b0380821115620003fe57620003fe620003b9565b604051601f8301601f19908116603f01168101908282118183101715620004295762000429620003b9565b816040528381526020925086838588010111156200044657600080fd5b600091505b838210156200046a57858201830151818301840152908201906200044b565b838211156200047c5760008385830101525b9695505050505050565b805180151581146200049757600080fd5b919050565b600080600080600060a08688031215620004b557600080fd5b85516001600160401b0380821115620004cd57600080fd5b620004db89838a01620003cf565b96506020880151915080821115620004f257600080fd5b506200050188828901620003cf565b94505060408601519250620005196060870162000486565b9150620005296080870162000486565b90509295509295909350565b634e487b7160e01b600052601160045260246000fd5b600181815b808511156200058c57816000190482111562000570576200057062000535565b808516156200057e57918102915b93841c939080029062000550565b509250929050565b600082620005a55750600162000644565b81620005b45750600062000644565b8160018114620005cd5760028114620005d857620005f8565b600191505062000644565b60ff841115620005ec57620005ec62000535565b50506001821b62000644565b5060208310610133831016604e8410600b84101617156200061d575081810a62000644565b6200062983836200054b565b806000190482111562000640576200064062000535565b0290505b92915050565b60006200065b60ff84168362000594565b9392505050565b60008160001904831182151516156200067f576200067f62000535565b500290565b600082198211156200069a576200069a62000535565b500190565b600181811c90821680620006b457607f821691505b60208210811415620006d657634e487b7160e01b600052602260045260246000fd5b50919050565b610f8480620006ec6000396000f3fe608060405234801561001057600080fd5b50600436106101515760003560e01c806370a08231116100cd57806395d89b4111610081578063a9059cbb11610066578063a9059cbb146102a4578063dd62ed3e146102b7578063f2fde38b146102f057600080fd5b806395d89b4114610289578063a457c2d71461029157600080fd5b806379cc6790116100b257806379cc679014610249578063883356d91461025c5780638da5cb5b1461026e57600080fd5b806370a0823114610218578063715018a61461024157600080fd5b8063313ce5671161012457806340c10f191161010957806340c10f19146101de57806342966c68146101f357806346b45af71461020657600080fd5b8063313ce567146101bc57806339509351146101cb57600080fd5b806306fdde0314610156578063095ea7b31461017457806318160ddd1461019757806323b872dd146101a9575b600080fd5b61015e610303565b60405161016b9190610d89565b60405180910390f35b610187610182366004610dfa565b610395565b604051901515815260200161016b565b6002545b60405190815260200161016b565b6101876101b7366004610e24565b6103ad565b6040516012815260200161016b565b6101876101d9366004610dfa565b6103d1565b6101f16101ec366004610dfa565b610410565b005b6101f1610201366004610e60565b610484565b600554600160a01b900460ff16610187565b61019b610226366004610e79565b6001600160a01b031660009081526020819052604090205490565b6101f16104ea565b6101f1610257366004610dfa565b6104fe565b600554600160a81b900460ff16610187565b6005546040516001600160a01b03909116815260200161016b565b61015e610513565b61018761029f366004610dfa565b610522565b6101876102b2366004610dfa565b6105cc565b61019b6102c5366004610e9b565b6001600160a01b03918216600090815260016020908152604080832093909416825291909152205490565b6101f16102fe366004610e79565b6105da565b60606003805461031290610ece565b80601f016020809104026020016040519081016040528092919081815260200182805461033e90610ece565b801561038b5780601f106103605761010080835404028352916020019161038b565b820191906000526020600020905b81548152906001019060200180831161036e57829003601f168201915b5050505050905090565b6000336103a3818585610746565b5060019392505050565b6000336103bb85828561089f565b6103c6858585610931565b506001949350505050565b3360008181526001602090815260408083206001600160a01b03871684529091528120549091906103a3908290869061040b908790610f1f565b610746565b610418610b48565b600554600160a01b900460ff166104765760405162461bcd60e51b815260206004820152601560248201527f546f6b656e206973206e6f74206d696e7461626c65000000000000000000000060448201526064015b60405180910390fd5b6104808282610667565b5050565b600554600160a81b900460ff166104dd5760405162461bcd60e51b815260206004820152601660248201527f546f6b656e2063616e6e6f74206265206275726e656400000000000000000000604482015260640161046d565b6104e73382610ba2565b50565b6104f2610b48565b6104fc6000610d1f565b565b61050982338361089f565b6104808282610ba2565b60606004805461031290610ece565b3360008181526001602090815260408083206001600160a01b0387168452909152812054909190838110156105bf5760405162461bcd60e51b815260206004820152602560248201527f45524332303a2064656372656173656420616c6c6f77616e63652062656c6f7760448201527f207a65726f000000000000000000000000000000000000000000000000000000606482015260840161046d565b6103c68286868403610746565b6000336103a3818585610931565b6105e2610b48565b6001600160a01b03811661065e5760405162461bcd60e51b815260206004820152602660248201527f4f776e61626c653a206e6577206f776e657220697320746865207a65726f206160448201527f6464726573730000000000000000000000000000000000000000000000000000606482015260840161046d565b6104e781610d1f565b6001600160a01b0382166106bd5760405162461bcd60e51b815260206004820152601f60248201527f45524332303a206d696e7420746f20746865207a65726f206164647265737300604482015260640161046d565b80600260008282546106cf9190610f1f565b90915550506001600160a01b038216600090815260208190526040812080548392906106fc908490610f1f565b90915550506040518181526001600160a01b038316906000907fddf252ad1be2c89b69c2b068fc378daa952ba7f163c4a11628f55a4df523b3ef9060200160405180910390a35050565b6001600160a01b0383166107c15760405162461bcd60e51b8152602060048201526024808201527f45524332303a20617070726f76652066726f6d20746865207a65726f2061646460448201527f7265737300000000000000000000000000000000000000000000000000000000606482015260840161046d565b6001600160a01b03821661083d5760405162461bcd60e51b815260206004820152602260248201527f45524332303a20617070726f766520746f20746865207a65726f20616464726560448201527f7373000000000000000000000000000000000000000000000000000000000000606482015260840161046d565b6001600160a01b0383811660008181526001602090815260408083209487168084529482529182902085905590518481527f8c5be1e5ebec7d5bd14f71427d1e84f3dd0314c0f7b2291e5b200ac8c7c3b92591015b60405180910390a3505050565b6001600160a01b03838116600090815260016020908152604080832093861683529290522054600019811461092b578181101561091e5760405162461bcd60e51b815260206004820152601d60248201527f45524332303a20696e73756666696369656e7420616c6c6f77616e6365000000604482015260640161046d565b61092b8484848403610746565b50505050565b6001600160a01b0383166109ad5760405162461bcd60e51b815260206004820152602560248201527f45524332303a207472616e736665722066726f6d20746865207a65726f20616460448201527f6472657373000000000000000000000000000000000000000000000000000000606482015260840161046d565b6001600160a01b038216610a295760405162461bcd60e51b815260206004820152602360248201527f45524332303a207472616e7366657220746f20746865207a65726f206164647260448201527f6573730000000000000000000000000000000000000000000000000000000000606482015260840161046d565b6001600160a01b03831660009081526020819052604090205481811015610ab85760405162461bcd60e51b815260206004820152602660248201527f45524332303a207472616e7366657220616d6f756e742065786365656473206260448201527f616c616e63650000000000000000000000000000000000000000000000000000606482015260840161046d565b6001600160a01b03808516600090815260208190526040808220858503905591851681529081208054849290610aef908490610f1f565b92505081905550826001600160a01b0316846001600160a01b03167fddf252ad1be2c89b69c2b068fc378daa952ba7f163c4a11628f55a4df523b3ef84604051610b3b91815260200190565b60405180910390a361092b565b6005546001600160a01b031633146104fc5760405162461bcd60e51b815260206004820181905260248201527f4f776e61626c653a2063616c6c6572206973206e6f7420746865206f776e6572604482015260640161046d565b6001600160a01b038216610c1e5760405162461bcd60e51b815260206004820152602160248201527f45524332303a206275726e2066726f6d20746865207a65726f2061646472657360448201527f7300000000000000000000000000000000000000000000000000000000000000606482015260840161046d565b6001600160a01b03821660009081526020819052604090205481811015610cad5760405162461bcd60e51b815260206004820152602260248201527f45524332303a206275726e20616d6f756e7420657863656564732062616c616e60448201527f6365000000000000000000000000000000000000000000000000000000000000606482015260840161046d565b6001600160a01b0383166000908152602081905260408120838303905560028054849290610cdc908490610f37565b90915550506040518281526000906001600160a01b038516907fddf252ad1be2c89b69c2b068fc378daa952ba7f163c4a11628f55a4df523b3ef90602001610892565b600580546001600160a01b038381167fffffffffffffffffffffffff0000000000000000000000000000000000000000831681179093556040519116919082907f8be0079c531659141344cd1fd0a4f28419497f9722a3daafe3b4186f6b6457e090600090a35050565b600060208083528351808285015260005b81811015610db657858101830151858201604001528201610d9a565b81811115610dc8576000604083870101525b50601f01601f1916929092016040019392505050565b80356001600160a01b0381168114610df557600080fd5b919050565b60008060408385031215610e0d57600080fd5b610e1683610dde565b946020939093013593505050565b600080600060608486031215610e3957600080fd5b610e4284610dde565b9250610e5060208501610dde565b9150604084013590509250925092565b600060208284031215610e7257600080fd5b5035919050565b600060208284031215610e8b57600080fd5b610e9482610dde565b9392505050565b60008060408385031215610eae57600080fd5b610eb783610dde565b9150610ec560208401610dde565b90509250929050565b600181811c90821680610ee257607f821691505b60208210811415610f0357634e487b7160e01b600052602260045260246000fd5b50919050565b634e487b7160e01b600052601160045260246000fd5b60008219821115610f3257610f32610f09565b500190565b600082821015610f4957610f49610f09565b50039056fea264697066735822122099e8892094b8ef68fa32e75208cd35b994785bdaa633efb1704fee7c98e0bfc964736f6c6343000809003360806040523480156200001157600080fd5b50604051620016ef380380620016ef833981016040819052620000349162000515565b8551869086906200004d9060039060208501906200038c565b508051620000639060049060208401906200038c565b505050620000806200007a6200017460201b60201c565b62000178565b600554600160a01b900460ff16620000df5760405162461bcd60e51b815260206004820152601760248201527f446563696d616c732063616e6e6f74206265207a65726f00000000000000000060448201526064015b60405180910390fd5b6005805461ffff60a81b1916600160a81b8515150260ff60b01b191617600160b01b841515021760ff60a01b1916600160a01b60ff8416021790556200015d3262000133600554600160a01b900460ff1690565b6200014090600a620006dd565b6200014c9087620006f5565b620001ca60201b620006531760201c565b6200016832620002af565b5050505050506200076f565b3390565b600580546001600160a01b038381166001600160a01b0319831681179093556040519116919082907f8be0079c531659141344cd1fd0a4f28419497f9722a3daafe3b4186f6b6457e090600090a35050565b6001600160a01b038216620002225760405162461bcd60e51b815260206004820152601f60248201527f45524332303a206d696e7420746f20746865207a65726f2061646472657373006044820152606401620000d6565b806002600082825462000236919062000717565b90915550506001600160a01b038216600090815260208190526040812080548392906200026590849062000717565b90915550506040518181526001600160a01b038316906000907fddf252ad1be2c89b69c2b068fc378daa952ba7f163c4a11628f55a4df523b3ef9060200160405180910390a35050565b620002b96200032e565b6001600160a01b038116620003205760405162461bcd60e51b815260206004820152602660248201527f4f776e61626c653a206e6577206f776e657220697320746865207a65726f206160448201526564647265737360d01b6064820152608401620000d6565b6200032b8162000178565b50565b6005546001600160a01b031633146200038a5760405162461bcd60e51b815260206004820181905260248201527f4f776e61626c653a2063616c6c6572206973206e6f7420746865206f776e65726044820152606401620000d6565b565b8280546200039a9062000732565b90600052602060002090601f016020900481019282620003be576000855562000409565b82601f10620003d957805160ff191683800117855562000409565b8280016001018555821562000409579182015b8281111562000409578251825591602001919060010190620003ec565b50620004179291506200041b565b5090565b5b808211156200041757600081556001016200041c565b634e487b7160e01b600052604160045260246000fd5b600082601f8301126200045a57600080fd5b81516001600160401b038082111562000477576200047762000432565b604051601f8301601f19908116603f01168101908282118183101715620004a257620004a262000432565b81604052838152602092508683858801011115620004bf57600080fd5b600091505b83821015620004e35785820183015181830184015290820190620004c4565b83821115620004f55760008385830101525b9695505050505050565b805180151581146200051057600080fd5b919050565b60008060008060008060c087890312156200052f57600080fd5b86516001600160401b03808211156200054757600080fd5b620005558a838b0162000448565b975060208901519150808211156200056c57600080fd5b506200057b89828a0162000448565b955050604087015193506200059360608801620004ff565b9250620005a360808801620004ff565b915060a087015160ff81168114620005ba57600080fd5b809150509295509295509295565b634e487b7160e01b600052601160045260246000fd5b600181815b808511156200061f578160001904821115620006035762000603620005c8565b808516156200061157918102915b93841c9390800290620005e3565b509250929050565b6000826200063857506001620006d7565b816200064757506000620006d7565b81600181146200066057600281146200066b576200068b565b6001915050620006d7565b60ff8411156200067f576200067f620005c8565b50506001821b620006d7565b5060208310610133831016604e8410600b8410161715620006b0575081810a620006d7565b620006bc8383620005de565b8060001904821115620006d357620006d3620005c8565b0290505b92915050565b6000620006ee60ff84168362000627565b9392505050565b6000816000190483118215151615620007125762000712620005c8565b500290565b600082198211156200072d576200072d620005c8565b500190565b600181811c908216806200074757607f821691505b602082108114156200076957634e487b7160e01b600052602260045260246000fd5b50919050565b610f70806200077f6000396000f3fe608060405234801561001057600080fd5b506004361061011b5760003560e01c806370a08231116100b257806395d89b4111610081578063a9059cbb11610066578063a9059cbb1461026b578063dd62ed3e1461027e578063f2fde38b146102b757600080fd5b806395d89b4114610250578063a457c2d71461025857600080fd5b806370a08231146101f1578063715018a61461021a57806379cc6790146102225780638da5cb5b1461023557600080fd5b8063313ce567116100ee578063313ce5671461018657806339509351146101b657806340c10f19146101c957806342966c68146101de57600080fd5b806306fdde0314610120578063095ea7b31461013e57806318160ddd1461016157806323b872dd14610173575b600080fd5b6101286102ca565b6040516101359190610d75565b60405180910390f35b61015161014c366004610de6565b61035c565b6040519015158152602001610135565b6002545b604051908152602001610135565b610151610181366004610e10565b610374565b60055474010000000000000000000000000000000000000000900460ff1660405160ff9091168152602001610135565b6101516101c4366004610de6565b610398565b6101dc6101d7366004610de6565b6103d7565b005b6101dc6101ec366004610e4c565b61045d565b6101656101ff366004610e65565b6001600160a01b031660009081526020819052604090205490565b6101dc6104d6565b6101dc610230366004610de6565b6104ea565b6005546040516001600160a01b039091168152602001610135565b6101286104ff565b610151610266366004610de6565b61050e565b610151610279366004610de6565b6105b8565b61016561028c366004610e87565b6001600160a01b03918216600090815260016020908152604080832093909416825291909152205490565b6101dc6102c5366004610e65565b6105c6565b6060600380546102d990610eba565b80601f016020809104026020016040519081016040528092919081815260200182805461030590610eba565b80156103525780601f1061032757610100808354040283529160200191610352565b820191906000526020600020905b81548152906001019060200180831161033557829003601f168201915b5050505050905090565b60003361036a818585610732565b5060019392505050565b60003361038285828561088b565b61038d85858561091d565b506001949350505050565b3360008181526001602090815260408083206001600160a01b038716845290915281205490919061036a90829086906103d2908790610f0b565b610732565b6103df610b34565b6005547501000000000000000000000000000000000000000000900460ff1661044f5760405162461bcd60e51b815260206004820152601560248201527f546f6b656e206973206e6f74206d696e7461626c65000000000000000000000060448201526064015b60405180910390fd5b6104598282610653565b5050565b600554760100000000000000000000000000000000000000000000900460ff166104c95760405162461bcd60e51b815260206004820152601660248201527f546f6b656e2063616e6e6f74206265206275726e6564000000000000000000006044820152606401610446565b6104d33382610b8e565b50565b6104de610b34565b6104e86000610d0b565b565b6104f582338361088b565b6104598282610b8e565b6060600480546102d990610eba565b3360008181526001602090815260408083206001600160a01b0387168452909152812054909190838110156105ab5760405162461bcd60e51b815260206004820152602560248201527f45524332303a2064656372656173656420616c6c6f77616e63652062656c6f7760448201527f207a65726f0000000000000000000000000000000000000000000000000000006064820152608401610446565b61038d8286868403610732565b60003361036a81858561091d565b6105ce610b34565b6001600160a01b03811661064a5760405162461bcd60e51b815260206004820152602660248201527f4f776e61626c653a206e6577206f776e657220697320746865207a65726f206160448201527f64647265737300000000000000000000000000000000000000000000000000006064820152608401610446565b6104d381610d0b565b6001600160a01b0382166106a95760405162461bcd60e51b815260206004820152601f60248201527f45524332303a206d696e7420746f20746865207a65726f2061646472657373006044820152606401610446565b80600260008282546106bb9190610f0b565b90915550506001600160a01b038216600090815260208190526040812080548392906106e8908490610f0b565b90915550506040518181526001600160a01b038316906000907fddf252ad1be2c89b69c2b068fc378daa952ba7f163c4a11628f55a4df523b3ef9060200160405180910390a35050565b6001600160a01b0383166107ad5760405162461bcd60e51b8152602060048201526024808201527f45524332303a20617070726f76652066726f6d20746865207a65726f2061646460448201527f72657373000000000000000000000000000000000000000000000000000000006064820152608401610446565b6001600160a01b0382166108295760405162461bcd60e51b815260206004820152602260248201527f45524332303a20617070726f766520746f20746865207a65726f20616464726560448201527f73730000000000000000000000000000000000000000000000000000000000006064820152608401610446565b6001600160a01b0383811660008181526001602090815260408083209487168084529482529182902085905590518481527f8c5be1e5ebec7d5bd14f71427d1e84f3dd0314c0f7b2291e5b200ac8c7c3b92591015b60405180910390a3505050565b6001600160a01b038381166000908152600160209081526040808320938616835292905220546000198114610917578181101561090a5760405162461bcd60e51b815260206004820152601d60248201527f45524332303a20696e73756666696369656e7420616c6c6f77616e63650000006044820152606401610446565b6109178484848403610732565b50505050565b6001600160a01b0383166109995760405162461bcd60e51b815260206004820152602560248201527f45524332303a207472616e736665722066726f6d20746865207a65726f20616460448201527f64726573730000000000000000000000000000000000000000000000000000006064820152608401610446565b6001600160a01b038216610a155760405162461bcd60e51b815260206004820152602360248201527f45524332303a207472616e7366657220746f20746865207a65726f206164647260448201527f65737300000000000000000000000000000000000000000000000000000000006064820152608401610446565b6001600160a01b03831660009081526020819052604090205481811015610aa45760405162461bcd60e51b815260206004820152602660248201527f45524332303a207472616e7366657220616d6f756e742065786365656473206260448201527f616c616e636500000000000000000000000000000000000000000000000000006064820152608401610446565b6001600160a01b03808516600090815260208190526040808220858503905591851681529081208054849290610adb908490610f0b565b92505081905550826001600160a01b0316846001600160a01b03167fddf252ad1be2c89b69c2b068fc378daa952ba7f163c4a11628f55a4df523b3ef84604051610b2791815260200190565b60405180910390a3610917565b6005546001600160a01b031633146104e85760405162461bcd60e51b815260206004820181905260248201527f4f776e61626c653a2063616c6c6572206973206e6f7420746865206f776e65726044820152606401610446565b6001600160a01b038216610c0a5760405162461bcd60e51b815260206004820152602160248201527f45524332303a206275726e2066726f6d20746865207a65726f2061646472657360448201527f73000000000000000000000000000000000000000000000000000000000000006064820152608401610446565b6001600160a01b03821660009081526020819052604090205481811015610c995760405162461bcd60e51b815260206004820152602260248201527f45524332303a206275726e20616d6f756e7420657863656564732062616c616e60448201527f63650000000000000000000000000000000000000000000000000000000000006064820152608401610446565b6001600160a01b0383166000908152602081905260408120838303905560028054849290610cc8908490610f23565b90915550506040518281526000906001600160a01b038516907fddf252ad1be2c89b69c2b068fc378daa952ba7f163c4a11628f55a4df523b3ef9060200161087e565b600580546001600160a01b038381167fffffffffffffffffffffffff0000000000000000000000000000000000000000831681179093556040519116919082907f8be0079c531659141344cd1fd0a4f28419497f9722a3daafe3b4186f6b6457e090600090a35050565b600060208083528351808285015260005b81811015610da257858101830151858201604001528201610d86565b81811115610db4576000604083870101525b50601f01601f1916929092016040019392505050565b80356001600160a01b0381168114610de157600080fd5b919050565b60008060408385031215610df957600080fd5b610e0283610dca565b946020939093013593505050565b600080600060608486031215610e2557600080fd5b610e2e84610dca565b9250610e3c60208501610dca565b9150604084013590509250925092565b600060208284031215610e5e57600080fd5b5035919050565b600060208284031215610e7757600080fd5b610e8082610dca565b9392505050565b60008060408385031215610e9a57600080fd5b610ea383610dca565b9150610eb160208401610dca565b90509250929050565b600181811c90821680610ece57607f821691505b60208210811415610eef57634e487b7160e01b600052602260045260246000fd5b50919050565b634e487b7160e01b600052601160045260246000fd5b60008219821115610f1e57610f1e610ef5565b500190565b600082821015610f3557610f35610ef5565b50039056fea26469706673582212209e5b7157d48b33a0d39fc3d306e439fab8eb401ab4d7367eead5ea82457ca3bb64736f6c63430008090033a2646970667358221220f59b71bbc2eaf00e2d4b2167006987d1c91872ed6ce76b3889d167cb768a806464736f6c63430008090033",
  "linkReferences": {},
  "deployedLinkReferences": {}
}