{
  "_format": "hh-sol-artifact-1",
  "contractName": "CustomERC20",
  "sourceName": "contracts/CustomERC20.sol",
  "abi": [
    {
      "inputs": [
        {
          "internalType": "string",
          "name": "name_",
          "type": "string"
        },
        {
          "internalType": "string",
          "name": "symbol_",
          "type": "string"
        },
        {
          "internalType": "uint256",
          "name": "initialSupply_",
          "type": "uint256"
        },
        {
          "internalType": "bool",
          "name": "isMintable_",
          "type": "bool"
        },
        {
          "internalType": "bool",
          "name": "isBurnable_",
          "type": "bool"
        }
      ],
      "stateMutability": "nonpayable",
      "type": "constructor"
    },
    {
      "anonymous": false,
      "inputs": [
        {
          "indexed": true,
          "internalType": "address",
          "name": "owner",
          "type": "address"
        },
        {
          "indexed": true,
          "internalType": "address",
          "name": "spender",
          "type": "address"
        },
        {
          "indexed": false,
          "internalType": "uint256",
          "name": "value",
          "type": "uint256"
        }
      ],
      "name": "Approval",
      "type": "event"
    },
    {
      "anonymous": false,
      "inputs": [
        {
          "indexed": true,
          "internalType": "address",
          "name": "previousOwner",
          "type": "address"
        },
        {
          "indexed": true,
          "internalType": "address",
          "name": "newOwner",
          "type": "address"
        }
      ],
      "name": "OwnershipTransferred",
      "type": "event"
    },
    {
      "anonymous": false,
      "inputs": [
        {
          "indexed": true,
          "internalType": "address",
          "name": "from",
          "type": "address"
        },
        {
          "indexed": true,
          "internalType": "address",
          "name": "to",
          "type": "address"
        },
        {
          "indexed": false,
          "internalType": "uint256",
          "name": "value",
          "type": "uint256"
        }
      ],
      "name": "Transfer",
      "type": "event"
    },
    {
      "inputs": [
        {
          "internalType": "address",
          "name": "owner",
          "type": "address"
        },
        {
          "internalType": "address",
          "name": "spender",
          "type": "address"
        }
      ],
      "name": "allowance",
      "outputs": [
        {
          "internalType": "uint256",
          "name": "",
          "type": "uint256"
        }
      ],
      "stateMutability": "view",
      "type": "function"
    },
    {
      "inputs": [
        {
          "internalType": "address",
          "name": "spender",
          "type": "address"
        },
        {
          "internalType": "uint256",
          "name": "amount",
          "type": "uint256"
        }
      ],
      "name": "approve",
      "outputs": [
        {
          "internalType": "bool",
          "name": "",
          "type": "bool"
        }
      ],
      "stateMutability": "nonpayable",
      "type": "function"
    },
    {
      "inputs": [
        {
          "internalType": "address",
          "name": "account",
          "type": "address"
        }
      ],
      "name": "balanceOf",
      "outputs": [
        {
          "internalType": "uint256",
          "name": "",
          "type": "uint256"
        }
      ],
      "stateMutability": "view",
      "type": "function"
    },
    {
      "inputs": [
        {
          "internalType": "uint256",
          "name": "amount",
          "type": "uint256"
        }
      ],
      "name": "burn",
      "outputs": [],
      "stateMutability": "nonpayable",
      "type": "function"
    },
    {
      "inputs": [
        {
          "internalType": "address",
          "name": "account",
          "type": "address"
        },
        {
          "internalType": "uint256",
          "name": "amount",
          "type": "uint256"
        }
      ],
      "name": "burnFrom",
      "outputs": [],
      "stateMutability": "nonpayable",
      "type": "function"
    },
    {
      "inputs": [],
      "name": "decimals",
      "outputs": [
        {
          "internalType": "uint8",
          "name": "",
          "type": "uint8"
        }
      ],
      "stateMutability": "view",
      "type": "function"
    },
    {
      "inputs": [
        {
          "internalType": "address",
          "name": "spender",
          "type": "address"
        },
        {
          "internalType": "uint256",
          "name": "subtractedValue",
          "type": "uint256"
        }
      ],
      "name": "decreaseAllowance",
      "outputs": [
        {
          "internalType": "bool",
          "name": "",
          "type": "bool"
        }
      ],
      "stateMutability": "nonpayable",
      "type": "function"
    },
    {
      "inputs": [
        {
          "internalType": "address",
          "name": "spender",
          "type": "address"
        },
        {
          "internalType": "uint256",
          "name": "addedValue",
          "type": "uint256"
        }
      ],
      "name": "increaseAllowance",
      "outputs": [
        {
          "internalType": "bool",
          "name": "",
          "type": "bool"
        }
      ],
      "stateMutability": "nonpayable",
      "type": "function"
    },
    {
      "inputs": [],
      "name": "isBurnable",
      "outputs": [
        {
          "internalType": "bool",
          "name": "",
          "type": "bool"
        }
      ],
      "stateMutability": "view",
      "type": "function"
    },
    {
      "inputs": [],
      "name": "isMintable",
      "outputs": [
        {
          "internalType": "bool",
          "name": "",
          "type": "bool"
        }
      ],
      "stateMutability": "view",
      "type": "function"
    },
    {
      "inputs": [
        {
          "internalType": "address",
          "name": "account",
          "type": "address"
        },
        {
          "internalType": "uint256",
          "name": "amount",
          "type": "uint256"
        }
      ],
      "name": "mint",
      "outputs": [],
      "stateMutability": "nonpayable",
      "type": "function"
    },
    {
      "inputs": [],
      "name": "name",
      "outputs": [
        {
          "internalType": "string",
          "name": "",
          "type": "string"
        }
      ],
      "stateMutability": "view",
      "type": "function"
    },
    {
      "inputs": [],
      "name": "owner",
      "outputs": [
        {
          "internalType": "address",
          "name": "",
          "type": "address"
        }
      ],
      "stateMutability": "view",
      "type": "function"
    },
    {
      "inputs": [],
      "name": "renounceOwnership",
      "outputs": [],
      "stateMutability": "nonpayable",
      "type": "function"
    },
    {
      "inputs": [],
      "name": "symbol",
      "outputs": [
        {
          "internalType": "string",
          "name": "",
          "type": "string"
        }
      ],
      "stateMutability": "view",
      "type": "function"
    },
    {
      "inputs": [],
      "name": "totalSupply",
      "outputs": [
        {
          "internalType": "uint256",
          "name": "",
          "type": "uint256"
        }
      ],
      "stateMutability": "view",
      "type": "function"
    },
    {
      "inputs": [
        {
          "internalType": "address",
          "name": "to",
          "type": "address"
        },
        {
          "internalType": "uint256",
          "name": "amount",
          "type": "uint256"
        }
      ],
      "name": "transfer",
      "outputs": [
        {
          "internalType": "bool",
          "name": "",
          "type": "bool"
        }
      ],
      "stateMutability": "nonpayable",
      "type": "function"
    },
    {
      "inputs": [
        {
          "internalType": "address",
          "name": "from",
          "type": "address"
        },
        {
          "internalType": "address",
          "name": "to",
          "type": "address"
        },
        {
          "internalType": "uint256",
          "name": "amount",
          "type": "uint256"
        }
      ],
      "name": "transferFrom",
      "outputs": [
        {
          "internalType": "bool",
          "name": "",
          "type": "bool"
        }
      ],
      "stateMutability": "nonpayable",
      "type": "function"
    },
    {
      "inputs": [
        {
          "internalType": "address",
          "name": "newOwner",
          "type": "address"
        }
      ],
      "name": "transferOwnership",
      "outputs": [],
      "stateMutability": "nonpayable",
      "type": "function"
    }
  ],
  "bytecode": "0x60806040523480156200001157600080fd5b5060405162002b0c38038062002b0c83398181016040528101906200003791906200078f565b8484816003908051906020019062000051929190620004ca565b5080600490805190602001906200006a929190620004ca565b5050506200008d620000816200011e60201b60201c565b6200012660201b60201c565b81600560146101000a81548160ff02191690831515021790555080600560156101000a81548160ff0219169083151502179055506200010232620000d6620001ec60201b60201c565b600a620000e49190620009e5565b85620000f1919062000a36565b620001f560201b620008b31760201c565b62000113326200036e60201b60201c565b505050505062000d14565b600033905090565b6000600560009054906101000a900473ffffffffffffffffffffffffffffffffffffffff16905081600560006101000a81548173ffffffffffffffffffffffffffffffffffffffff021916908373ffffffffffffffffffffffffffffffffffffffff1602179055508173ffffffffffffffffffffffffffffffffffffffff168173ffffffffffffffffffffffffffffffffffffffff167f8be0079c531659141344cd1fd0a4f28419497f9722a3daafe3b4186f6b6457e060405160405180910390a35050565b60006012905090565b600073ffffffffffffffffffffffffffffffffffffffff168273ffffffffffffffffffffffffffffffffffffffff16141562000268576040517f08c379a00000000000000000000000000000000000000000000000000000000081526004016200025f9062000af8565b60405180910390fd5b6200027c600083836200040560201b60201c565b806002600082825462000290919062000b1a565b92505081905550806000808473ffffffffffffffffffffffffffffffffffffffff1673ffffffffffffffffffffffffffffffffffffffff1681526020019081526020016000206000828254620002e7919062000b1a565b925050819055508173ffffffffffffffffffffffffffffffffffffffff16600073ffffffffffffffffffffffffffffffffffffffff167fddf252ad1be2c89b69c2b068fc378daa952ba7f163c4a11628f55a4df523b3ef836040516200034e919062000b88565b60405180910390a36200036a600083836200040a60201b60201c565b5050565b6200037e6200040f60201b60201c565b600073ffffffffffffffffffffffffffffffffffffffff168173ffffffffffffffffffffffffffffffffffffffff161415620003f1576040517f08c379a0000000000000000000000000000000000000000000000000000000008152600401620003e89062000c1b565b60405180910390fd5b62000402816200012660201b60201c565b50565b505050565b505050565b6200041f6200011e60201b60201c565b73ffffffffffffffffffffffffffffffffffffffff1662000445620004a060201b60201c565b73ffffffffffffffffffffffffffffffffffffffff16146200049e576040517f08c379a0000000000000000000000000000000000000000000000000000000008152600401620004959062000c8d565b60405180910390fd5b565b6000600560009054906101000a900473ffffffffffffffffffffffffffffffffffffffff16905090565b828054620004d89062000cde565b90600052602060002090601f016020900481019282620004fc576000855562000548565b82601f106200051757805160ff191683800117855562000548565b8280016001018555821562000548579182015b82811115620005475782518255916020019190600101906200052a565b5b5090506200055791906200055b565b5090565b5b80821115620005765760008160009055506001016200055c565b5090565b6000604051905090565b600080fd5b600080fd5b600080fd5b600080fd5b6000601f19601f8301169050919050565b7f4e487b7100000000000000000000000000000000000000000000000000000000600052604160045260246000fd5b620005e38262000598565b810181811067ffffffffffffffff82111715620006055762000604620005a9565b5b80604052505050565b60006200061a6200057a565b9050620006288282620005d8565b919050565b600067ffffffffffffffff8211156200064b576200064a620005a9565b5b620006568262000598565b9050602081019050919050565b60005b838110156200068357808201518184015260208101905062000666565b8381111562000693576000848401525b50505050565b6000620006b0620006aa846200062d565b6200060e565b905082815260208101848484011115620006cf57620006ce62000593565b5b620006dc84828562000663565b509392505050565b600082601f830112620006fc57620006fb6200058e565b5b81516200070e84826020860162000699565b91505092915050565b6000819050919050565b6200072c8162000717565b81146200073857600080fd5b50565b6000815190506200074c8162000721565b92915050565b60008115159050919050565b620007698162000752565b81146200077557600080fd5b50565b60008151905062000789816200075e565b92915050565b600080600080600060a08688031215620007ae57620007ad62000584565b5b600086015167ffffffffffffffff811115620007cf57620007ce62000589565b5b620007dd88828901620006e4565b955050602086015167ffffffffffffffff81111562000801576200080062000589565b5b6200080f88828901620006e4565b945050604062000822888289016200073b565b9350506060620008358882890162000778565b9250506080620008488882890162000778565b9150509295509295909350565b7f4e487b7100000000000000000000000000000000000000000000000000000000600052601160045260246000fd5b60008160011c9050919050565b6000808291508390505b6001851115620008e357808604811115620008bb57620008ba62000855565b5b6001851615620008cb5780820291505b8081029050620008db8562000884565b94506200089b565b94509492505050565b600082620008fe5760019050620009d1565b816200090e5760009050620009d1565b8160018114620009275760028114620009325762000968565b6001915050620009d1565b60ff84111562000947576200094662000855565b5b8360020a91508482111562000961576200096062000855565b5b50620009d1565b5060208310610133831016604e8410600b8410161715620009a25782820a9050838111156200099c576200099b62000855565b5b620009d1565b620009b1848484600162000891565b92509050818404811115620009cb57620009ca62000855565b5b81810290505b9392505050565b600060ff82169050919050565b6000620009f28262000717565b9150620009ff83620009d8565b925062000a2e7fffffffffffffffffffffffffffffffffffffffffffffffffffffffffffffffff8484620008ec565b905092915050565b600062000a438262000717565b915062000a508362000717565b9250817fffffffffffffffffffffffffffffffffffffffffffffffffffffffffffffffff048311821515161562000a8c5762000a8b62000855565b5b828202905092915050565b600082825260208201905092915050565b7f45524332303a206d696e7420746f20746865207a65726f206164647265737300600082015250565b600062000ae0601f8362000a97565b915062000aed8262000aa8565b602082019050919050565b6000602082019050818103600083015262000b138162000ad1565b9050919050565b600062000b278262000717565b915062000b348362000717565b9250827fffffffffffffffffffffffffffffffffffffffffffffffffffffffffffffffff0382111562000b6c5762000b6b62000855565b5b828201905092915050565b62000b828162000717565b82525050565b600060208201905062000b9f600083018462000b77565b92915050565b7f4f776e61626c653a206e6577206f776e657220697320746865207a65726f206160008201527f6464726573730000000000000000000000000000000000000000000000000000602082015250565b600062000c0360268362000a97565b915062000c108262000ba5565b604082019050919050565b6000602082019050818103600083015262000c368162000bf4565b9050919050565b7f4f776e61626c653a2063616c6c6572206973206e6f7420746865206f776e6572600082015250565b600062000c7560208362000a97565b915062000c828262000c3d565b602082019050919050565b6000602082019050818103600083015262000ca88162000c66565b9050919050565b7f4e487b7100000000000000000000000000000000000000000000000000000000600052602260045260246000fd5b6000600282049050600182168062000cf757607f821691505b6020821081141562000d0e5762000d0d62000caf565b5b50919050565b611de88062000d246000396000f3fe608060405234801561001057600080fd5b50600436106101215760003560e01c806370a08231116100ad57806395d89b411161007157806395d89b41146102f8578063a457c2d714610316578063a9059cbb14610346578063dd62ed3e14610376578063f2fde38b146103a657610121565b806370a0823114610266578063715018a61461029657806379cc6790146102a0578063883356d9146102bc5780638da5cb5b146102da57610121565b8063313ce567116100f4578063313ce567146101c257806339509351146101e057806340c10f191461021057806342966c681461022c57806346b45af71461024857610121565b806306fdde0314610126578063095ea7b31461014457806318160ddd1461017457806323b872dd14610192575b600080fd5b61012e6103c2565b60405161013b91906112b1565b60405180910390f35b61015e6004803603810190610159919061136c565b610454565b60405161016b91906113c7565b60405180910390f35b61017c610477565b60405161018991906113f1565b60405180910390f35b6101ac60048036038101906101a7919061140c565b610481565b6040516101b991906113c7565b60405180910390f35b6101ca6104b0565b6040516101d7919061147b565b60405180910390f35b6101fa60048036038101906101f5919061136c565b6104b9565b60405161020791906113c7565b60405180910390f35b61022a6004803603810190610225919061136c565b6104f0565b005b61024660048036038101906102419190611496565b61054d565b005b6102506105a8565b60405161025d91906113c7565b60405180910390f35b610280600480360381019061027b91906114c3565b6105bf565b60405161028d91906113f1565b60405180910390f35b61029e610607565b005b6102ba60048036038101906102b5919061136c565b61061b565b005b6102c461063b565b6040516102d191906113c7565b60405180910390f35b6102e2610652565b6040516102ef91906114ff565b60405180910390f35b61030061067c565b60405161030d91906112b1565b60405180910390f35b610330600480360381019061032b919061136c565b61070e565b60405161033d91906113c7565b60405180910390f35b610360600480360381019061035b919061136c565b610785565b60405161036d91906113c7565b60405180910390f35b610390600480360381019061038b919061151a565b6107a8565b60405161039d91906113f1565b60405180910390f35b6103c060048036038101906103bb91906114c3565b61082f565b005b6060600380546103d190611589565b80601f01602080910402602001604051908101604052809291908181526020018280546103fd90611589565b801561044a5780601f1061041f5761010080835404028352916020019161044a565b820191906000526020600020905b81548152906001019060200180831161042d57829003601f168201915b5050505050905090565b60008061045f610a13565b905061046c818585610a1b565b600191505092915050565b6000600254905090565b60008061048c610a13565b9050610499858285610be6565b6104a4858585610c72565b60019150509392505050565b60006012905090565b6000806104c4610a13565b90506104e58185856104d685896107a8565b6104e091906115ea565b610a1b565b600191505092915050565b6104f8610ef3565b6105006105a8565b61053f576040517f08c379a00000000000000000000000000000000000000000000000000000000081526004016105369061168c565b60405180910390fd5b61054982826108b3565b5050565b61055561063b565b610594576040517f08c379a000000000000000000000000000000000000000000000000000000000815260040161058b906116f8565b60405180910390fd5b6105a561059f610a13565b82610f71565b50565b6000600560149054906101000a900460ff16905090565b60008060008373ffffffffffffffffffffffffffffffffffffffff1673ffffffffffffffffffffffffffffffffffffffff168152602001908152602001600020549050919050565b61060f610ef3565b6106196000611148565b565b61062d82610627610a13565b83610be6565b6106378282610f71565b5050565b6000600560159054906101000a900460ff16905090565b6000600560009054906101000a900473ffffffffffffffffffffffffffffffffffffffff16905090565b60606004805461068b90611589565b80601f01602080910402602001604051908101604052809291908181526020018280546106b790611589565b80156107045780601f106106d957610100808354040283529160200191610704565b820191906000526020600020905b8154815290600101906020018083116106e757829003601f168201915b5050505050905090565b600080610719610a13565b9050600061072782866107a8565b90508381101561076c576040517f08c379a00000000000000000000000000000000000000000000000000000000081526004016107639061178a565b60405180910390fd5b6107798286868403610a1b565b60019250505092915050565b600080610790610a13565b905061079d818585610c72565b600191505092915050565b6000600160008473ffffffffffffffffffffffffffffffffffffffff1673ffffffffffffffffffffffffffffffffffffffff16815260200190815260200160002060008373ffffffffffffffffffffffffffffffffffffffff1673ffffffffffffffffffffffffffffffffffffffff16815260200190815260200160002054905092915050565b610837610ef3565b600073ffffffffffffffffffffffffffffffffffffffff168173ffffffffffffffffffffffffffffffffffffffff1614156108a7576040517f08c379a000000000000000000000000000000000000000000000000000000000815260040161089e9061181c565b60405180910390fd5b6108b081611148565b50565b600073ffffffffffffffffffffffffffffffffffffffff168273ffffffffffffffffffffffffffffffffffffffff161415610923576040517f08c379a000000000000000000000000000000000000000000000000000000000815260040161091a90611888565b60405180910390fd5b61092f6000838361120e565b806002600082825461094191906115ea565b92505081905550806000808473ffffffffffffffffffffffffffffffffffffffff1673ffffffffffffffffffffffffffffffffffffffff168152602001908152602001600020600082825461099691906115ea565b925050819055508173ffffffffffffffffffffffffffffffffffffffff16600073ffffffffffffffffffffffffffffffffffffffff167fddf252ad1be2c89b69c2b068fc378daa952ba7f163c4a11628f55a4df523b3ef836040516109fb91906113f1565b60405180910390a3610a0f60008383611213565b5050565b600033905090565b600073ffffffffffffffffffffffffffffffffffffffff168373ffffffffffffffffffffffffffffffffffffffff161415610a8b576040517f08c379a0000000000000000000000000000000000000000000000000000000008152600401610a829061191a565b60405180910390fd5b600073ffffffffffffffffffffffffffffffffffffffff168273ffffffffffffffffffffffffffffffffffffffff161415610afb576040517f08c379a0000000000000000000000000000000000000000000000000000000008152600401610af2906119ac565b60405180910390fd5b80600160008573ffffffffffffffffffffffffffffffffffffffff1673ffffffffffffffffffffffffffffffffffffffff16815260200190815260200160002060008473ffffffffffffffffffffffffffffffffffffffff1673ffffffffffffffffffffffffffffffffffffffff168152602001908152602001600020819055508173ffffffffffffffffffffffffffffffffffffffff168373ffffffffffffffffffffffffffffffffffffffff167f8c5be1e5ebec7d5bd14f71427d1e84f3dd0314c0f7b2291e5b200ac8c7c3b92583604051610bd991906113f1565b60405180910390a3505050565b6000610bf284846107a8565b90507fffffffffffffffffffffffffffffffffffffffffffffffffffffffffffffffff8114610c6c5781811015610c5e576040517f08c379a0000000000000000000000000000000000000000000000000000000008152600401610c5590611a18565b60405180910390fd5b610c6b8484848403610a1b565b5b50505050565b600073ffffffffffffffffffffffffffffffffffffffff168373ffffffffffffffffffffffffffffffffffffffff161415610ce2576040517f08c379a0000000000000000000000000000000000000000000000000000000008152600401610cd990611aaa565b60405180910390fd5b600073ffffffffffffffffffffffffffffffffffffffff168273ffffffffffffffffffffffffffffffffffffffff161415610d52576040517f08c379a0000000000000000000000000000000000000000000000000000000008152600401610d4990611b3c565b60405180910390fd5b610d5d83838361120e565b60008060008573ffffffffffffffffffffffffffffffffffffffff1673ffffffffffffffffffffffffffffffffffffffff16815260200190815260200160002054905081811015610de3576040517f08c379a0000000000000000000000000000000000000000000000000000000008152600401610dda90611bce565b60405180910390fd5b8181036000808673ffffffffffffffffffffffffffffffffffffffff1673ffffffffffffffffffffffffffffffffffffffff16815260200190815260200160002081905550816000808573ffffffffffffffffffffffffffffffffffffffff1673ffffffffffffffffffffffffffffffffffffffff1681526020019081526020016000206000828254610e7691906115ea565b925050819055508273ffffffffffffffffffffffffffffffffffffffff168473ffffffffffffffffffffffffffffffffffffffff167fddf252ad1be2c89b69c2b068fc378daa952ba7f163c4a11628f55a4df523b3ef84604051610eda91906113f1565b60405180910390a3610eed848484611213565b50505050565b610efb610a13565b73ffffffffffffffffffffffffffffffffffffffff16610f19610652565b73ffffffffffffffffffffffffffffffffffffffff1614610f6f576040517f08c379a0000000000000000000000000000000000000000000000000000000008152600401610f6690611c3a565b60405180910390fd5b565b600073ffffffffffffffffffffffffffffffffffffffff168273ffffffffffffffffffffffffffffffffffffffff161415610fe1576040517f08c379a0000000000000000000000000000000000000000000000000000000008152600401610fd890611ccc565b60405180910390fd5b610fed8260008361120e565b60008060008473ffffffffffffffffffffffffffffffffffffffff1673ffffffffffffffffffffffffffffffffffffffff16815260200190815260200160002054905081811015611073576040517f08c379a000000000000000000000000000000000000000000000000000000000815260040161106a90611d5e565b60405180910390fd5b8181036000808573ffffffffffffffffffffffffffffffffffffffff1673ffffffffffffffffffffffffffffffffffffffff1681526020019081526020016000208190555081600260008282546110ca9190611d7e565b92505081905550600073ffffffffffffffffffffffffffffffffffffffff168373ffffffffffffffffffffffffffffffffffffffff167fddf252ad1be2c89b69c2b068fc378daa952ba7f163c4a11628f55a4df523b3ef8460405161112f91906113f1565b60405180910390a361114383600084611213565b505050565b6000600560009054906101000a900473ffffffffffffffffffffffffffffffffffffffff16905081600560006101000a81548173ffffffffffffffffffffffffffffffffffffffff021916908373ffffffffffffffffffffffffffffffffffffffff1602179055508173ffffffffffffffffffffffffffffffffffffffff168173ffffffffffffffffffffffffffffffffffffffff167f8be0079c531659141344cd1fd0a4f28419497f9722a3daafe3b4186f6b6457e060405160405180910390a35050565b505050565b505050565b600081519050919050565b600082825260208201905092915050565b60005b83811015611252578082015181840152602081019050611237565b83811115611261576000848401525b50505050565b6000601f19601f8301169050919050565b600061128382611218565b61128d8185611223565b935061129d818560208601611234565b6112a681611267565b840191505092915050565b600060208201905081810360008301526112cb8184611278565b905092915050565b600080fd5b600073ffffffffffffffffffffffffffffffffffffffff82169050919050565b6000611303826112d8565b9050919050565b611313816112f8565b811461131e57600080fd5b50565b6000813590506113308161130a565b92915050565b6000819050919050565b61134981611336565b811461135457600080fd5b50565b60008135905061136681611340565b92915050565b60008060408385031215611383576113826112d3565b5b600061139185828601611321565b92505060206113a285828601611357565b9150509250929050565b60008115159050919050565b6113c1816113ac565b82525050565b60006020820190506113dc60008301846113b8565b92915050565b6113eb81611336565b82525050565b600060208201905061140660008301846113e2565b92915050565b600080600060608486031215611425576114246112d3565b5b600061143386828701611321565b935050602061144486828701611321565b925050604061145586828701611357565b9150509250925092565b600060ff82169050919050565b6114758161145f565b82525050565b6000602082019050611490600083018461146c565b92915050565b6000602082840312156114ac576114ab6112d3565b5b60006114ba84828501611357565b91505092915050565b6000602082840312156114d9576114d86112d3565b5b60006114e784828501611321565b91505092915050565b6114f9816112f8565b82525050565b600060208201905061151460008301846114f0565b92915050565b60008060408385031215611531576115306112d3565b5b600061153f85828601611321565b925050602061155085828601611321565b9150509250929050565b7f4e487b7100000000000000000000000000000000000000000000000000000000600052602260045260246000fd5b600060028204905060018216806115a157607f821691505b602082108114156115b5576115b461155a565b5b50919050565b7f4e487b7100000000000000000000000000000000000000000000000000000000600052601160045260246000fd5b60006115f582611336565b915061160083611336565b9250827fffffffffffffffffffffffffffffffffffffffffffffffffffffffffffffffff03821115611635576116346115bb565b5b828201905092915050565b7f546f6b656e206973206e6f74206d696e7461626c650000000000000000000000600082015250565b6000611676601583611223565b915061168182611640565b602082019050919050565b600060208201905081810360008301526116a581611669565b9050919050565b7f546f6b656e2063616e6e6f74206265206275726e656400000000000000000000600082015250565b60006116e2601683611223565b91506116ed826116ac565b602082019050919050565b60006020820190508181036000830152611711816116d5565b9050919050565b7f45524332303a2064656372656173656420616c6c6f77616e63652062656c6f7760008201527f207a65726f000000000000000000000000000000000000000000000000000000602082015250565b6000611774602583611223565b915061177f82611718565b604082019050919050565b600060208201905081810360008301526117a381611767565b9050919050565b7f4f776e61626c653a206e6577206f776e657220697320746865207a65726f206160008201527f6464726573730000000000000000000000000000000000000000000000000000602082015250565b6000611806602683611223565b9150611811826117aa565b604082019050919050565b60006020820190508181036000830152611835816117f9565b9050919050565b7f45524332303a206d696e7420746f20746865207a65726f206164647265737300600082015250565b6000611872601f83611223565b915061187d8261183c565b602082019050919050565b600060208201905081810360008301526118a181611865565b9050919050565b7f45524332303a20617070726f76652066726f6d20746865207a65726f2061646460008201527f7265737300000000000000000000000000000000000000000000000000000000602082015250565b6000611904602483611223565b915061190f826118a8565b604082019050919050565b60006020820190508181036000830152611933816118f7565b9050919050565b7f45524332303a20617070726f766520746f20746865207a65726f20616464726560008201527f7373000000000000000000000000000000000000000000000000000000000000602082015250565b6000611996602283611223565b91506119a18261193a565b604082019050919050565b600060208201905081810360008301526119c581611989565b9050919050565b7f45524332303a20696e73756666696369656e7420616c6c6f77616e6365000000600082015250565b6000611a02601d83611223565b9150611a0d826119cc565b602082019050919050565b60006020820190508181036000830152611a31816119f5565b9050919050565b7f45524332303a207472616e736665722066726f6d20746865207a65726f20616460008201527f6472657373000000000000000000000000000000000000000000000000000000602082015250565b6000611a94602583611223565b9150611a9f82611a38565b604082019050919050565b60006020820190508181036000830152611ac381611a87565b9050919050565b7f45524332303a207472616e7366657220746f20746865207a65726f206164647260008201527f6573730000000000000000000000000000000000000000000000000000000000602082015250565b6000611b26602383611223565b9150611b3182611aca565b604082019050919050565b60006020820190508181036000830152611b5581611b19565b9050919050565b7f45524332303a207472616e7366657220616d6f756e742065786365656473206260008201527f616c616e63650000000000000000000000000000000000000000000000000000602082015250565b6000611bb8602683611223565b9150611bc382611b5c565b604082019050919050565b60006020820190508181036000830152611be781611bab565b9050919050565b7f4f776e61626c653a2063616c6c6572206973206e6f7420746865206f776e6572600082015250565b6000611c24602083611223565b9150611c2f82611bee565b602082019050919050565b60006020820190508181036000830152611c5381611c17565b9050919050565b7f45524332303a206275726e2066726f6d20746865207a65726f2061646472657360008201527f7300000000000000000000000000000000000000000000000000000000000000602082015250565b6000611cb6602183611223565b9150611cc182611c5a565b604082019050919050565b60006020820190508181036000830152611ce581611ca9565b9050919050565b7f45524332303a206275726e20616d6f756e7420657863656564732062616c616e60008201527f6365000000000000000000000000000000000000000000000000000000000000602082015250565b6000611d48602283611223565b9150611d5382611cec565b604082019050919050565b60006020820190508181036000830152611d7781611d3b565b9050919050565b6000611d8982611336565b9150611d9483611336565b925082821015611da757611da66115bb565b5b82820390509291505056fea26469706673582212203740a722ee5732bbe9d0beedf82ca791264a1c4ca72bee8a04ef05318e47d3f064736f6c63430008090033",
  "linkReferences": {},
  "deployedLinkReferences": {}
}